{
  "address": "0xbaE1e1fd1A1e9b39297bE36BF83eEB1094CB81Bd",
  "abi": [
    {
      "inputs": [
        {
          "internalType": "contract ComptrollerInterface",
          "name": "comptroller_",
          "type": "address"
        },
        {
          "internalType": "contract InterestRateModel",
          "name": "interestRateModel_",
          "type": "address"
        },
        {
          "internalType": "uint256",
          "name": "initialExchangeRateMantissa_",
          "type": "uint256"
        },
        {
          "internalType": "string",
          "name": "name_",
          "type": "string"
        },
        {
          "internalType": "string",
          "name": "symbol_",
          "type": "string"
        },
        {
          "internalType": "uint8",
          "name": "decimals_",
          "type": "uint8"
        },
        {
          "internalType": "address payable",
          "name": "admin_",
          "type": "address"
        }
      ],
      "payable": false,
      "stateMutability": "nonpayable",
      "type": "constructor"
    },
    {
      "anonymous": false,
      "inputs": [
        {
          "indexed": false,
          "internalType": "uint256",
          "name": "cashPrior",
          "type": "uint256"
        },
        {
          "indexed": false,
          "internalType": "uint256",
          "name": "interestAccumulated",
          "type": "uint256"
        },
        {
          "indexed": false,
          "internalType": "uint256",
          "name": "borrowIndex",
          "type": "uint256"
        },
        {
          "indexed": false,
          "internalType": "uint256",
          "name": "totalBorrows",
          "type": "uint256"
        }
      ],
      "name": "AccrueInterest",
      "type": "event"
    },
    {
      "anonymous": false,
      "inputs": [
        {
          "indexed": true,
          "internalType": "address",
          "name": "owner",
          "type": "address"
        },
        {
          "indexed": true,
          "internalType": "address",
          "name": "spender",
          "type": "address"
        },
        {
          "indexed": false,
          "internalType": "uint256",
          "name": "amount",
          "type": "uint256"
        }
      ],
      "name": "Approval",
      "type": "event"
    },
    {
      "anonymous": false,
      "inputs": [
        {
          "indexed": false,
          "internalType": "address",
          "name": "borrower",
          "type": "address"
        },
        {
          "indexed": false,
          "internalType": "uint256",
          "name": "borrowAmount",
          "type": "uint256"
        },
        {
          "indexed": false,
          "internalType": "uint256",
          "name": "accountBorrows",
          "type": "uint256"
        },
        {
          "indexed": false,
          "internalType": "uint256",
          "name": "totalBorrows",
          "type": "uint256"
        }
      ],
      "name": "Borrow",
      "type": "event"
    },
    {
      "anonymous": false,
      "inputs": [
        {
          "indexed": false,
          "internalType": "uint256",
          "name": "error",
          "type": "uint256"
        },
        {
          "indexed": false,
          "internalType": "uint256",
          "name": "info",
          "type": "uint256"
        },
        {
          "indexed": false,
          "internalType": "uint256",
          "name": "detail",
          "type": "uint256"
        }
      ],
      "name": "Failure",
      "type": "event"
    },
    {
      "anonymous": false,
      "inputs": [
        {
          "indexed": false,
          "internalType": "address",
          "name": "liquidator",
          "type": "address"
        },
        {
          "indexed": false,
          "internalType": "address",
          "name": "borrower",
          "type": "address"
        },
        {
          "indexed": false,
          "internalType": "uint256",
          "name": "repayAmount",
          "type": "uint256"
        },
        {
          "indexed": false,
          "internalType": "address",
          "name": "cTokenCollateral",
          "type": "address"
        },
        {
          "indexed": false,
          "internalType": "uint256",
          "name": "seizeTokens",
          "type": "uint256"
        }
      ],
      "name": "LiquidateBorrow",
      "type": "event"
    },
    {
      "anonymous": false,
      "inputs": [
        {
          "indexed": false,
          "internalType": "address",
          "name": "minter",
          "type": "address"
        },
        {
          "indexed": false,
          "internalType": "uint256",
          "name": "mintAmount",
          "type": "uint256"
        },
        {
          "indexed": false,
          "internalType": "uint256",
          "name": "mintTokens",
          "type": "uint256"
        }
      ],
      "name": "Mint",
      "type": "event"
    },
    {
      "anonymous": false,
      "inputs": [
        {
          "indexed": false,
          "internalType": "address",
          "name": "oldAdmin",
          "type": "address"
        },
        {
          "indexed": false,
          "internalType": "address",
          "name": "newAdmin",
          "type": "address"
        }
      ],
      "name": "NewAdmin",
      "type": "event"
    },
    {
      "anonymous": false,
      "inputs": [
        {
          "indexed": false,
          "internalType": "contract ComptrollerInterface",
          "name": "oldComptroller",
          "type": "address"
        },
        {
          "indexed": false,
          "internalType": "contract ComptrollerInterface",
          "name": "newComptroller",
          "type": "address"
        }
      ],
      "name": "NewComptroller",
      "type": "event"
    },
    {
      "anonymous": false,
      "inputs": [
        {
          "indexed": false,
          "internalType": "contract InterestRateModel",
          "name": "oldInterestRateModel",
          "type": "address"
        },
        {
          "indexed": false,
          "internalType": "contract InterestRateModel",
          "name": "newInterestRateModel",
          "type": "address"
        }
      ],
      "name": "NewMarketInterestRateModel",
      "type": "event"
    },
    {
      "anonymous": false,
      "inputs": [
        {
          "indexed": false,
          "internalType": "address",
          "name": "oldPendingAdmin",
          "type": "address"
        },
        {
          "indexed": false,
          "internalType": "address",
          "name": "newPendingAdmin",
          "type": "address"
        }
      ],
      "name": "NewPendingAdmin",
      "type": "event"
    },
    {
      "anonymous": false,
      "inputs": [
        {
          "indexed": false,
          "internalType": "uint256",
          "name": "oldReserveFactorMantissa",
          "type": "uint256"
        },
        {
          "indexed": false,
          "internalType": "uint256",
          "name": "newReserveFactorMantissa",
          "type": "uint256"
        }
      ],
      "name": "NewReserveFactor",
      "type": "event"
    },
    {
      "anonymous": false,
      "inputs": [
        {
          "indexed": false,
          "internalType": "address",
          "name": "redeemer",
          "type": "address"
        },
        {
          "indexed": false,
          "internalType": "uint256",
          "name": "redeemAmount",
          "type": "uint256"
        },
        {
          "indexed": false,
          "internalType": "uint256",
          "name": "redeemTokens",
          "type": "uint256"
        }
      ],
      "name": "Redeem",
      "type": "event"
    },
    {
      "anonymous": false,
      "inputs": [
        {
          "indexed": false,
          "internalType": "address",
          "name": "payer",
          "type": "address"
        },
        {
          "indexed": false,
          "internalType": "address",
          "name": "borrower",
          "type": "address"
        },
        {
          "indexed": false,
          "internalType": "uint256",
          "name": "repayAmount",
          "type": "uint256"
        },
        {
          "indexed": false,
          "internalType": "uint256",
          "name": "accountBorrows",
          "type": "uint256"
        },
        {
          "indexed": false,
          "internalType": "uint256",
          "name": "totalBorrows",
          "type": "uint256"
        }
      ],
      "name": "RepayBorrow",
      "type": "event"
    },
    {
      "anonymous": false,
      "inputs": [
        {
          "indexed": false,
          "internalType": "address",
          "name": "benefactor",
          "type": "address"
        },
        {
          "indexed": false,
          "internalType": "uint256",
          "name": "addAmount",
          "type": "uint256"
        },
        {
          "indexed": false,
          "internalType": "uint256",
          "name": "newTotalReserves",
          "type": "uint256"
        }
      ],
      "name": "ReservesAdded",
      "type": "event"
    },
    {
      "anonymous": false,
      "inputs": [
        {
          "indexed": false,
          "internalType": "address",
          "name": "admin",
          "type": "address"
        },
        {
          "indexed": false,
          "internalType": "uint256",
          "name": "reduceAmount",
          "type": "uint256"
        },
        {
          "indexed": false,
          "internalType": "uint256",
          "name": "newTotalReserves",
          "type": "uint256"
        }
      ],
      "name": "ReservesReduced",
      "type": "event"
    },
    {
      "anonymous": false,
      "inputs": [
        {
          "indexed": true,
          "internalType": "address",
          "name": "from",
          "type": "address"
        },
        {
          "indexed": true,
          "internalType": "address",
          "name": "to",
          "type": "address"
        },
        {
          "indexed": false,
          "internalType": "uint256",
          "name": "amount",
          "type": "uint256"
        }
      ],
      "name": "Transfer",
      "type": "event"
    },
    {
      "payable": true,
      "stateMutability": "payable",
      "type": "fallback"
    },
    {
      "constant": false,
      "inputs": [],
      "name": "_acceptAdmin",
      "outputs": [
        {
          "internalType": "uint256",
          "name": "",
          "type": "uint256"
        }
      ],
      "payable": false,
      "stateMutability": "nonpayable",
      "type": "function"
    },
    {
      "constant": false,
      "inputs": [
        {
          "internalType": "uint256",
          "name": "reduceAmount",
          "type": "uint256"
        }
      ],
      "name": "_reduceReserves",
      "outputs": [
        {
          "internalType": "uint256",
          "name": "",
          "type": "uint256"
        }
      ],
      "payable": false,
      "stateMutability": "nonpayable",
      "type": "function"
    },
    {
      "constant": false,
      "inputs": [
        {
          "internalType": "contract ComptrollerInterface",
          "name": "newComptroller",
          "type": "address"
        }
      ],
      "name": "_setComptroller",
      "outputs": [
        {
          "internalType": "uint256",
          "name": "",
          "type": "uint256"
        }
      ],
      "payable": false,
      "stateMutability": "nonpayable",
      "type": "function"
    },
    {
      "constant": false,
      "inputs": [
        {
          "internalType": "contract InterestRateModel",
          "name": "newInterestRateModel",
          "type": "address"
        }
      ],
      "name": "_setInterestRateModel",
      "outputs": [
        {
          "internalType": "uint256",
          "name": "",
          "type": "uint256"
        }
      ],
      "payable": false,
      "stateMutability": "nonpayable",
      "type": "function"
    },
    {
      "constant": false,
      "inputs": [
        {
          "internalType": "address payable",
          "name": "newPendingAdmin",
          "type": "address"
        }
      ],
      "name": "_setPendingAdmin",
      "outputs": [
        {
          "internalType": "uint256",
          "name": "",
          "type": "uint256"
        }
      ],
      "payable": false,
      "stateMutability": "nonpayable",
      "type": "function"
    },
    {
      "constant": false,
      "inputs": [
        {
          "internalType": "uint256",
          "name": "newReserveFactorMantissa",
          "type": "uint256"
        }
      ],
      "name": "_setReserveFactor",
      "outputs": [
        {
          "internalType": "uint256",
          "name": "",
          "type": "uint256"
        }
      ],
      "payable": false,
      "stateMutability": "nonpayable",
      "type": "function"
    },
    {
      "constant": true,
      "inputs": [],
      "name": "accrualBlockNumber",
      "outputs": [
        {
          "internalType": "uint256",
          "name": "",
          "type": "uint256"
        }
      ],
      "payable": false,
      "stateMutability": "view",
      "type": "function"
    },
    {
      "constant": false,
      "inputs": [],
      "name": "accrueInterest",
      "outputs": [
        {
          "internalType": "uint256",
          "name": "",
          "type": "uint256"
        }
      ],
      "payable": false,
      "stateMutability": "nonpayable",
      "type": "function"
    },
    {
      "constant": true,
      "inputs": [],
      "name": "admin",
      "outputs": [
        {
          "internalType": "address payable",
          "name": "",
          "type": "address"
        }
      ],
      "payable": false,
      "stateMutability": "view",
      "type": "function"
    },
    {
      "constant": true,
      "inputs": [
        {
          "internalType": "address",
          "name": "owner",
          "type": "address"
        },
        {
          "internalType": "address",
          "name": "spender",
          "type": "address"
        }
      ],
      "name": "allowance",
      "outputs": [
        {
          "internalType": "uint256",
          "name": "",
          "type": "uint256"
        }
      ],
      "payable": false,
      "stateMutability": "view",
      "type": "function"
    },
    {
      "constant": false,
      "inputs": [
        {
          "internalType": "address",
          "name": "spender",
          "type": "address"
        },
        {
          "internalType": "uint256",
          "name": "amount",
          "type": "uint256"
        }
      ],
      "name": "approve",
      "outputs": [
        {
          "internalType": "bool",
          "name": "",
          "type": "bool"
        }
      ],
      "payable": false,
      "stateMutability": "nonpayable",
      "type": "function"
    },
    {
      "constant": true,
      "inputs": [
        {
          "internalType": "address",
          "name": "owner",
          "type": "address"
        }
      ],
      "name": "balanceOf",
      "outputs": [
        {
          "internalType": "uint256",
          "name": "",
          "type": "uint256"
        }
      ],
      "payable": false,
      "stateMutability": "view",
      "type": "function"
    },
    {
      "constant": false,
      "inputs": [
        {
          "internalType": "address",
          "name": "owner",
          "type": "address"
        }
      ],
      "name": "balanceOfUnderlying",
      "outputs": [
        {
          "internalType": "uint256",
          "name": "",
          "type": "uint256"
        }
      ],
      "payable": false,
      "stateMutability": "nonpayable",
      "type": "function"
    },
    {
      "constant": false,
      "inputs": [
        {
          "internalType": "uint256",
          "name": "borrowAmount",
          "type": "uint256"
        }
      ],
      "name": "borrow",
      "outputs": [
        {
          "internalType": "uint256",
          "name": "",
          "type": "uint256"
        }
      ],
      "payable": false,
      "stateMutability": "nonpayable",
      "type": "function"
    },
    {
      "constant": false,
      "inputs": [
        {
          "internalType": "address",
          "name": "account",
          "type": "address"
        }
      ],
      "name": "borrowBalanceCurrent",
      "outputs": [
        {
          "internalType": "uint256",
          "name": "",
          "type": "uint256"
        }
      ],
      "payable": false,
      "stateMutability": "nonpayable",
      "type": "function"
    },
    {
      "constant": true,
      "inputs": [
        {
          "internalType": "address",
          "name": "account",
          "type": "address"
        }
      ],
      "name": "borrowBalanceStored",
      "outputs": [
        {
          "internalType": "uint256",
          "name": "",
          "type": "uint256"
        }
      ],
      "payable": false,
      "stateMutability": "view",
      "type": "function"
    },
    {
      "constant": true,
      "inputs": [],
      "name": "borrowIndex",
      "outputs": [
        {
          "internalType": "uint256",
          "name": "",
          "type": "uint256"
        }
      ],
      "payable": false,
      "stateMutability": "view",
      "type": "function"
    },
    {
      "constant": true,
      "inputs": [],
      "name": "borrowRatePerBlock",
      "outputs": [
        {
          "internalType": "uint256",
          "name": "",
          "type": "uint256"
        }
      ],
      "payable": false,
      "stateMutability": "view",
      "type": "function"
    },
    {
      "constant": true,
      "inputs": [],
      "name": "comptroller",
      "outputs": [
        {
          "internalType": "contract ComptrollerInterface",
          "name": "",
          "type": "address"
        }
      ],
      "payable": false,
      "stateMutability": "view",
      "type": "function"
    },
    {
      "constant": true,
      "inputs": [],
      "name": "decimals",
      "outputs": [
        {
          "internalType": "uint8",
          "name": "",
          "type": "uint8"
        }
      ],
      "payable": false,
      "stateMutability": "view",
      "type": "function"
    },
    {
      "constant": false,
      "inputs": [],
      "name": "exchangeRateCurrent",
      "outputs": [
        {
          "internalType": "uint256",
          "name": "",
          "type": "uint256"
        }
      ],
      "payable": false,
      "stateMutability": "nonpayable",
      "type": "function"
    },
    {
      "constant": true,
      "inputs": [],
      "name": "exchangeRateStored",
      "outputs": [
        {
          "internalType": "uint256",
          "name": "",
          "type": "uint256"
        }
      ],
      "payable": false,
      "stateMutability": "view",
      "type": "function"
    },
    {
      "constant": true,
      "inputs": [
        {
          "internalType": "address",
          "name": "account",
          "type": "address"
        }
      ],
      "name": "getAccountSnapshot",
      "outputs": [
        {
          "internalType": "uint256",
          "name": "",
          "type": "uint256"
        },
        {
          "internalType": "uint256",
          "name": "",
          "type": "uint256"
        },
        {
          "internalType": "uint256",
          "name": "",
          "type": "uint256"
        },
        {
          "internalType": "uint256",
          "name": "",
          "type": "uint256"
        }
      ],
      "payable": false,
      "stateMutability": "view",
      "type": "function"
    },
    {
      "constant": true,
      "inputs": [],
      "name": "getCash",
      "outputs": [
        {
          "internalType": "uint256",
          "name": "",
          "type": "uint256"
        }
      ],
      "payable": false,
      "stateMutability": "view",
      "type": "function"
    },
    {
      "constant": true,
      "inputs": [],
      "name": "initialExchangeRateMantissa",
      "outputs": [
        {
          "internalType": "uint256",
          "name": "",
          "type": "uint256"
        }
      ],
      "payable": false,
      "stateMutability": "view",
      "type": "function"
    },
    {
      "constant": false,
      "inputs": [
        {
          "internalType": "contract ComptrollerInterface",
          "name": "comptroller_",
          "type": "address"
        },
        {
          "internalType": "contract InterestRateModel",
          "name": "interestRateModel_",
          "type": "address"
        },
        {
          "internalType": "uint256",
          "name": "initialExchangeRateMantissa_",
          "type": "uint256"
        },
        {
          "internalType": "string",
          "name": "name_",
          "type": "string"
        },
        {
          "internalType": "string",
          "name": "symbol_",
          "type": "string"
        },
        {
          "internalType": "uint8",
          "name": "decimals_",
          "type": "uint8"
        }
      ],
      "name": "initialize",
      "outputs": [],
      "payable": false,
      "stateMutability": "nonpayable",
      "type": "function"
    },
    {
      "constant": true,
      "inputs": [],
      "name": "interestRateModel",
      "outputs": [
        {
          "internalType": "contract InterestRateModel",
          "name": "",
          "type": "address"
        }
      ],
      "payable": false,
      "stateMutability": "view",
      "type": "function"
    },
    {
      "constant": true,
      "inputs": [],
      "name": "isCToken",
      "outputs": [
        {
          "internalType": "bool",
          "name": "",
          "type": "bool"
        }
      ],
      "payable": false,
      "stateMutability": "view",
      "type": "function"
    },
    {
      "constant": false,
      "inputs": [
        {
          "internalType": "address",
          "name": "borrower",
          "type": "address"
        },
        {
          "internalType": "contract CToken",
          "name": "cTokenCollateral",
          "type": "address"
        }
      ],
      "name": "liquidateBorrow",
      "outputs": [],
      "payable": true,
      "stateMutability": "payable",
      "type": "function"
    },
    {
      "constant": false,
      "inputs": [],
      "name": "mint",
      "outputs": [],
      "payable": true,
      "stateMutability": "payable",
      "type": "function"
    },
    {
      "constant": true,
      "inputs": [],
      "name": "name",
      "outputs": [
        {
          "internalType": "string",
          "name": "",
          "type": "string"
        }
      ],
      "payable": false,
      "stateMutability": "view",
      "type": "function"
    },
    {
      "constant": true,
      "inputs": [],
      "name": "pendingAdmin",
      "outputs": [
        {
          "internalType": "address payable",
          "name": "",
          "type": "address"
        }
      ],
      "payable": false,
      "stateMutability": "view",
      "type": "function"
    },
    {
      "constant": false,
      "inputs": [
        {
          "internalType": "uint256",
          "name": "redeemTokens",
          "type": "uint256"
        }
      ],
      "name": "redeem",
      "outputs": [
        {
          "internalType": "uint256",
          "name": "",
          "type": "uint256"
        }
      ],
      "payable": false,
      "stateMutability": "nonpayable",
      "type": "function"
    },
    {
      "constant": false,
      "inputs": [
        {
          "internalType": "uint256",
          "name": "redeemAmount",
          "type": "uint256"
        }
      ],
      "name": "redeemUnderlying",
      "outputs": [
        {
          "internalType": "uint256",
          "name": "",
          "type": "uint256"
        }
      ],
      "payable": false,
      "stateMutability": "nonpayable",
      "type": "function"
    },
    {
      "constant": false,
      "inputs": [],
      "name": "repayBorrow",
      "outputs": [],
      "payable": true,
      "stateMutability": "payable",
      "type": "function"
    },
    {
      "constant": false,
      "inputs": [
        {
          "internalType": "address",
          "name": "borrower",
          "type": "address"
        }
      ],
      "name": "repayBorrowBehalf",
      "outputs": [],
      "payable": true,
      "stateMutability": "payable",
      "type": "function"
    },
    {
      "constant": true,
      "inputs": [],
      "name": "reserveFactorMantissa",
      "outputs": [
        {
          "internalType": "uint256",
          "name": "",
          "type": "uint256"
        }
      ],
      "payable": false,
      "stateMutability": "view",
      "type": "function"
    },
    {
      "constant": false,
      "inputs": [
        {
          "internalType": "address",
          "name": "liquidator",
          "type": "address"
        },
        {
          "internalType": "address",
          "name": "borrower",
          "type": "address"
        },
        {
          "internalType": "uint256",
          "name": "seizeTokens",
          "type": "uint256"
        }
      ],
      "name": "seize",
      "outputs": [
        {
          "internalType": "uint256",
          "name": "",
          "type": "uint256"
        }
      ],
      "payable": false,
      "stateMutability": "nonpayable",
      "type": "function"
    },
    {
      "constant": true,
      "inputs": [],
      "name": "supplyRatePerBlock",
      "outputs": [
        {
          "internalType": "uint256",
          "name": "",
          "type": "uint256"
        }
      ],
      "payable": false,
      "stateMutability": "view",
      "type": "function"
    },
    {
      "constant": true,
      "inputs": [],
      "name": "symbol",
      "outputs": [
        {
          "internalType": "string",
          "name": "",
          "type": "string"
        }
      ],
      "payable": false,
      "stateMutability": "view",
      "type": "function"
    },
    {
      "constant": true,
      "inputs": [],
      "name": "totalBorrows",
      "outputs": [
        {
          "internalType": "uint256",
          "name": "",
          "type": "uint256"
        }
      ],
      "payable": false,
      "stateMutability": "view",
      "type": "function"
    },
    {
      "constant": false,
      "inputs": [],
      "name": "totalBorrowsCurrent",
      "outputs": [
        {
          "internalType": "uint256",
          "name": "",
          "type": "uint256"
        }
      ],
      "payable": false,
      "stateMutability": "nonpayable",
      "type": "function"
    },
    {
      "constant": true,
      "inputs": [],
      "name": "totalReserves",
      "outputs": [
        {
          "internalType": "uint256",
          "name": "",
          "type": "uint256"
        }
      ],
      "payable": false,
      "stateMutability": "view",
      "type": "function"
    },
    {
      "constant": true,
      "inputs": [],
      "name": "totalSupply",
      "outputs": [
        {
          "internalType": "uint256",
          "name": "",
          "type": "uint256"
        }
      ],
      "payable": false,
      "stateMutability": "view",
      "type": "function"
    },
    {
      "constant": false,
      "inputs": [
        {
          "internalType": "address",
          "name": "dst",
          "type": "address"
        },
        {
          "internalType": "uint256",
          "name": "amount",
          "type": "uint256"
        }
      ],
      "name": "transfer",
      "outputs": [
        {
          "internalType": "bool",
          "name": "",
          "type": "bool"
        }
      ],
      "payable": false,
      "stateMutability": "nonpayable",
      "type": "function"
    },
    {
      "constant": false,
      "inputs": [
        {
          "internalType": "address",
          "name": "src",
          "type": "address"
        },
        {
          "internalType": "address",
          "name": "dst",
          "type": "address"
        },
        {
          "internalType": "uint256",
          "name": "amount",
          "type": "uint256"
        }
      ],
      "name": "transferFrom",
      "outputs": [
        {
          "internalType": "bool",
          "name": "",
          "type": "bool"
        }
      ],
      "payable": false,
      "stateMutability": "nonpayable",
      "type": "function"
    }
  ],
  "transactionHash": "0xbc9590a005d7a2598f879c4fd5491f2817447770b20ec62aa656c28ed2ae1309",
  "args": [
    "0x8F29B9A8725FDE226007262c8d760C29da54a439",
    "0xe88d720D92e9dB6A032bd43753A0e6274E20d345",
    "2000000000000000000",
    "Market Indicator Ether",
    "miEther",
    8,
    "0x673FfE9D00DdB550e11fD8c796DFd0ec0D26566d"
  ],
  "solcInputHash": "b5a113507e380d935218651336b00698",
  "bytecode": "0x60806040523480156200001157600080fd5b506040516200539d3803806200539d833981810160405260e08110156200003757600080fd5b8151602083015160408085015160608601805192519496939591949391820192846401000000008211156200006b57600080fd5b9083019060208201858111156200008157600080fd5b82516401000000008111828201881017156200009c57600080fd5b82525081516020918201929091019080838360005b83811015620000cb578181015183820152602001620000b1565b50505050905090810190601f168015620000f95780820380516001836020036101000a031916815260200191505b50604052602001805160405193929190846401000000008211156200011d57600080fd5b9083019060208201858111156200013357600080fd5b82516401000000008111828201881017156200014e57600080fd5b82525081516020918201929091019080838360005b838110156200017d57818101518382015260200162000163565b50505050905090810190601f168015620001ab5780820380516001836020036101000a031916815260200191505b506040908152602082015191015160038054610100600160a81b03191633610100021790559092509050620001e587878787878762000218565b600380546001600160a01b0390921661010002610100600160a81b03199092169190911790555062000853945050505050565b60035461010090046001600160a01b03163314620002685760405162461bcd60e51b8152600401808060200182810382526024815260200180620053046024913960400191505060405180910390fd5b600954158015620002795750600a54155b620002b65760405162461bcd60e51b8152600401808060200182810382526023815260200180620053286023913960400191505060405180910390fd5b600784905583620002f95760405162461bcd60e51b81526004018080602001828103825260308152602001806200534b6030913960400191505060405180910390fd5b60006200030f876001600160e01b036200042e16565b9050801562000365576040805162461bcd60e51b815260206004820152601a60248201527f73657474696e6720636f6d7074726f6c6c6572206661696c6564000000000000604482015290519081900360640190fd5b620003786001600160e01b036200059616565b600955670de0b6b3a7640000600a556200039b866001600160e01b036200059b16565b90508015620003dc5760405162461bcd60e51b81526004018080602001828103825260228152602001806200537b6022913960400191505060405180910390fd5b8351620003f1906001906020870190620007b1565b50825162000407906002906020860190620007b1565b50506003805460ff90921660ff199283161790556000805490911660011790555050505050565b60035460009061010090046001600160a01b031633146200046857620004606001603f6001600160e01b036200074116565b905062000591565b60055460408051623f1ee960e11b815290516001600160a01b0392831692851691627e3dd2916004808301926020929190829003018186803b158015620004ae57600080fd5b505afa158015620004c3573d6000803e3d6000fd5b505050506040513d6020811015620004da57600080fd5b50516200052e576040805162461bcd60e51b815260206004820152601c60248201527f6d61726b6572206d6574686f642072657475726e65642066616c736500000000604482015290519081900360640190fd5b600580546001600160a01b0319166001600160a01b03858116918217909255604080519284168352602083019190915280517f7ac369dbd14fa5ea3f473ed67cc9d598964a77501540ba6751eb0b3decf5870d9281900390910190a160005b9150505b919050565b435b90565b600354600090819061010090046001600160a01b03163314620005d857620005cf600160426001600160e01b036200074116565b91505062000591565b620005eb6001600160e01b036200059616565b600954146200060b57620005cf600a60416001600160e01b036200074116565b600660009054906101000a90046001600160a01b03169050826001600160a01b0316632191f92a6040518163ffffffff1660e01b815260040160206040518083038186803b1580156200065d57600080fd5b505afa15801562000672573d6000803e3d6000fd5b505050506040513d60208110156200068957600080fd5b5051620006dd576040805162461bcd60e51b815260206004820152601c60248201527f6d61726b6572206d6574686f642072657475726e65642066616c736500000000604482015290519081900360640190fd5b600680546001600160a01b0319166001600160a01b03858116918217909255604080519284168352602083019190915280517fedffc32e068c7c95dfd4bdfd5c4d939a084d6b11c4199eac8436ed234d72f9269281900390910190a160006200058d565b60007f45b96fe442630264581b197e84bbada861235052c5a1aadfff9ea4e40a969aa08360108111156200077157fe5b8360508111156200077e57fe5b604080519283526020830191909152600082820152519081900360600190a1826010811115620007aa57fe5b9392505050565b828054600181600116156101000203166002900490600052602060002090601f016020900481019282601f10620007f457805160ff191683800117855562000824565b8280016001018555821562000824579182015b828111156200082457825182559160200191906001019062000807565b506200083292915062000836565b5090565b6200059891905b808211156200083257600081556001016200083d565b614aa180620008636000396000f3fe60806040526004361061027d5760003560e01c806395d89b411161014f578063c37f68e2116100c1578063f2b3abbd1161007a578063f2b3abbd14610a42578063f3fdb15a14610a75578063f851a44014610a8a578063f8f9da2814610a9f578063fca7820b14610ab4578063fe9c44ae14610ade5761027d565b8063c37f68e21461091f578063c5ebeaec14610978578063db006a75146109a2578063dd62ed3e146109cc578063e597461914610a07578063e9c714f214610a2d5761027d565b8063aa5af0fd11610113578063aa5af0fd1461083c578063aae40a2a14610851578063ae9d70b01461087f578063b2a02ff114610894578063b71d1a0c146108d7578063bd6d894d1461090a5761027d565b806395d89b411461064757806395dd91931461065c57806399d8c1b41461068f578063a6afed95146107ee578063a9059cbb146108035761027d565b80633b1d21a2116101f3578063675d972c116101ac578063675d972c146105965780636c540baf146105ab57806370a08231146105c057806373acee98146105f3578063852a12e3146106085780638f840ddd146106325761027d565b80633b1d21a2146104f25780634576b5db1461050757806347bd37181461053a5780634e4d9fea1461054f5780635fe3b56714610557578063601a0bf11461056c5761027d565b806318160ddd1161024557806318160ddd146103f6578063182df0f51461040b57806323b872dd146104205780632678224714610463578063313ce567146104945780633af9e669146104bf5761027d565b806306fdde03146102bb578063095ea7b3146103455780631249c58b14610392578063173b99041461039c57806317bfdfbc146103c3575b600061028834610af3565b5090506102b8816040518060400160405280600b81526020016a1b5a5b9d0819985a5b195960aa1b815250610b9b565b50005b3480156102c757600080fd5b506102d0610d9b565b6040805160208082528351818301528351919283929083019185019080838360005b8381101561030a5781810151838201526020016102f2565b50505050905090810190601f1680156103375780820380516001836020036101000a031916815260200191505b509250505060405180910390f35b34801561035157600080fd5b5061037e6004803603604081101561036857600080fd5b506001600160a01b038135169060200135610e28565b604080519115158252519081900360200190f35b61039a610e95565b005b3480156103a857600080fd5b506103b1610ed3565b60408051918252519081900360200190f35b3480156103cf57600080fd5b506103b1600480360360208110156103e657600080fd5b50356001600160a01b0316610ed9565b34801561040257600080fd5b506103b1610f99565b34801561041757600080fd5b506103b1610f9f565b34801561042c57600080fd5b5061037e6004803603606081101561044357600080fd5b506001600160a01b03813581169160208101359091169060400135611002565b34801561046f57600080fd5b50610478611074565b604080516001600160a01b039092168252519081900360200190f35b3480156104a057600080fd5b506104a9611083565b6040805160ff9092168252519081900360200190f35b3480156104cb57600080fd5b506103b1600480360360208110156104e257600080fd5b50356001600160a01b031661108c565b3480156104fe57600080fd5b506103b1611144565b34801561051357600080fd5b506103b16004803603602081101561052a57600080fd5b50356001600160a01b0316611153565b34801561054657600080fd5b506103b16112a8565b61039a6112ae565b34801561056357600080fd5b506104786112f0565b34801561057857600080fd5b506103b16004803603602081101561058f57600080fd5b50356112ff565b3480156105a257600080fd5b506103b161139a565b3480156105b757600080fd5b506103b16113a0565b3480156105cc57600080fd5b506103b1600480360360208110156105e357600080fd5b50356001600160a01b03166113a6565b3480156105ff57600080fd5b506103b16113c1565b34801561061457600080fd5b506103b16004803603602081101561062b57600080fd5b5035611477565b34801561063e57600080fd5b506103b1611482565b34801561065357600080fd5b506102d0611488565b34801561066857600080fd5b506103b16004803603602081101561067f57600080fd5b50356001600160a01b03166114e0565b34801561069b57600080fd5b5061039a600480360360c08110156106b257600080fd5b6001600160a01b038235811692602081013590911691604082013591908101906080810160608201356401000000008111156106ed57600080fd5b8201836020820111156106ff57600080fd5b8035906020019184600183028401116401000000008311171561072157600080fd5b91908080601f016020809104026020016040519081016040528093929190818152602001838380828437600092019190915250929594936020810193503591505064010000000081111561077457600080fd5b82018360208201111561078657600080fd5b803590602001918460018302840111640100000000831117156107a857600080fd5b91908080601f0160208091040260200160405190810160405280939291908181526020018383808284376000920191909152509295505050903560ff16915061153d9050565b3480156107fa57600080fd5b506103b1611724565b34801561080f57600080fd5b5061037e6004803603604081101561082657600080fd5b506001600160a01b038135169060200135611a7c565b34801561084857600080fd5b506103b1611aed565b61039a6004803603604081101561086757600080fd5b506001600160a01b0381358116916020013516611af3565b34801561088b57600080fd5b506103b1611b40565b3480156108a057600080fd5b506103b1600480360360608110156108b757600080fd5b506001600160a01b03813581169160208101359091169060400135611bdf565b3480156108e357600080fd5b506103b1600480360360208110156108fa57600080fd5b50356001600160a01b0316611c50565b34801561091657600080fd5b506103b1611cdc565b34801561092b57600080fd5b506109526004803603602081101561094257600080fd5b50356001600160a01b0316611d98565b604080519485526020850193909352838301919091526060830152519081900360800190f35b34801561098457600080fd5b506103b16004803603602081101561099b57600080fd5b5035611e2d565b3480156109ae57600080fd5b506103b1600480360360208110156109c557600080fd5b5035611e38565b3480156109d857600080fd5b506103b1600480360360408110156109ef57600080fd5b506001600160a01b0381358116916020013516611e43565b61039a60048036036020811015610a1d57600080fd5b50356001600160a01b0316611e6e565b348015610a3957600080fd5b506103b1611ebc565b348015610a4e57600080fd5b506103b160048036036020811015610a6557600080fd5b50356001600160a01b0316611fbf565b348015610a8157600080fd5b50610478611ff9565b348015610a9657600080fd5b50610478612008565b348015610aab57600080fd5b506103b161201c565b348015610ac057600080fd5b506103b160048036036020811015610ad757600080fd5b5035612080565b348015610aea57600080fd5b5061037e6120fe565b60008054819060ff16610b3a576040805162461bcd60e51b815260206004820152600a6024820152691c994b595b9d195c995960b21b604482015290519081900360640190fd5b6000805460ff19168155610b4c611724565b90508015610b7757610b6a816010811115610b6357fe5b601e612103565b925060009150610b879050565b610b813385612169565b92509250505b6000805460ff191660011790559092909150565b81610ba557610d97565b606081516005016040519080825280601f01601f191660200182016040528015610bd6576020820181803883390190505b50905060005b8251811015610c2757828181518110610bf157fe5b602001015160f81c60f81b828281518110610c0857fe5b60200101906001600160f81b031916908160001a905350600101610bdc565b8151600160fd1b90839083908110610c3b57fe5b60200101906001600160f81b031916908160001a905350602860f81b828260010181518110610c6657fe5b60200101906001600160f81b031916908160001a905350600a840460300160f81b828260020181518110610c9657fe5b60200101906001600160f81b031916908160001a905350600a840660300160f81b828260030181518110610cc657fe5b60200101906001600160f81b031916908160001a905350602960f81b828260040181518110610cf157fe5b60200101906001600160f81b031916908160001a905350818415610d935760405162461bcd60e51b81526004018080602001828103825283818151815260200191508051906020019080838360005b83811015610d58578181015183820152602001610d40565b50505050905090810190601f168015610d855780820380516001836020036101000a031916815260200191505b509250505060405180910390fd5b5050505b5050565b60018054604080516020600284861615610100026000190190941693909304601f81018490048402820184019092528181529291830182828015610e205780601f10610df557610100808354040283529160200191610e20565b820191906000526020600020905b815481529060010190602001808311610e0357829003601f168201915b505050505081565b336000818152600f602090815260408083206001600160a01b03871680855290835281842086905581518681529151939493909284927f8c5be1e5ebec7d5bd14f71427d1e84f3dd0314c0f7b2291e5b200ac8c7c3b925929081900390910190a360019150505b92915050565b6000610ea034610af3565b509050610ed0816040518060400160405280600b81526020016a1b5a5b9d0819985a5b195960aa1b815250610b9b565b50565b60085481565b6000805460ff16610f1e576040805162461bcd60e51b815260206004820152600a6024820152691c994b595b9d195c995960b21b604482015290519081900360640190fd5b6000805460ff19168155610f30611724565b14610f7b576040805162461bcd60e51b81526020600482015260166024820152751858d8dc9d59481a5b9d195c995cdd0819985a5b195960521b604482015290519081900360640190fd5b610f84826114e0565b90505b6000805460ff19166001179055919050565b600d5481565b6000806000610fac61253b565b90925090506000826003811115610fbf57fe5b14610ffb5760405162461bcd60e51b81526004018080602001828103825260358152602001806149b86035913960400191505060405180910390fd5b9150505b90565b6000805460ff16611047576040805162461bcd60e51b815260206004820152600a6024820152691c994b595b9d195c995960b21b604482015290519081900360640190fd5b6000805460ff1916815561105d338686866125ea565b1490506000805460ff191660011790559392505050565b6004546001600160a01b031681565b60035460ff1681565b60006110966146a6565b60405180602001604052806110a9611cdc565b90526001600160a01b0384166000908152600e60205260408120549192509081906110d5908490612878565b909250905060008260038111156110e857fe5b1461113a576040805162461bcd60e51b815260206004820152601f60248201527f62616c616e636520636f756c64206e6f742062652063616c63756c6174656400604482015290519081900360640190fd5b925050505b919050565b600061114e6128cb565b905090565b60035460009061010090046001600160a01b03163314611180576111796001603f612103565b905061113f565b60055460408051623f1ee960e11b815290516001600160a01b0392831692851691627e3dd2916004808301926020929190829003018186803b1580156111c557600080fd5b505afa1580156111d9573d6000803e3d6000fd5b505050506040513d60208110156111ef57600080fd5b5051611242576040805162461bcd60e51b815260206004820152601c60248201527f6d61726b6572206d6574686f642072657475726e65642066616c736500000000604482015290519081900360640190fd5b600580546001600160a01b0319166001600160a01b03858116918217909255604080519284168352602083019190915280517f7ac369dbd14fa5ea3f473ed67cc9d598964a77501540ba6751eb0b3decf5870d9281900390910190a160005b9392505050565b600b5481565b60006112b93461292c565b509050610ed081604051806040016040528060128152602001711c995c185e509bdc9c9bddc819985a5b195960721b815250610b9b565b6005546001600160a01b031681565b6000805460ff16611344576040805162461bcd60e51b815260206004820152600a6024820152691c994b595b9d195c995960b21b604482015290519081900360640190fd5b6000805460ff19168155611356611724565b9050801561137c5761137481601081111561136d57fe5b6030612103565b915050610f87565b611385836129ae565b9150506000805460ff19166001179055919050565b60075481565b60095481565b6001600160a01b03166000908152600e602052604090205490565b6000805460ff16611406576040805162461bcd60e51b815260206004820152600a6024820152691c994b595b9d195c995960b21b604482015290519081900360640190fd5b6000805460ff19168155611418611724565b14611463576040805162461bcd60e51b81526020600482015260166024820152751858d8dc9d59481a5b9d195c995cdd0819985a5b195960521b604482015290519081900360640190fd5b50600b546000805460ff1916600117905590565b6000610e8f82612ae1565b600c5481565b6002805460408051602060018416156101000260001901909316849004601f81018490048402820184019092528181529291830182828015610e205780601f10610df557610100808354040283529160200191610e20565b60008060006114ee84612b62565b9092509050600082600381111561150157fe5b146112a15760405162461bcd60e51b81526004018080602001828103825260378152602001806148c36037913960400191505060405180910390fd5b60035461010090046001600160a01b0316331461158b5760405162461bcd60e51b81526004018080602001828103825260248152602001806147ff6024913960400191505060405180910390fd5b60095415801561159b5750600a54155b6115d65760405162461bcd60e51b81526004018080602001828103825260238152602001806148236023913960400191505060405180910390fd5b6007849055836116175760405162461bcd60e51b81526004018080602001828103825260308152602001806148466030913960400191505060405180910390fd5b600061162287611153565b90508015611677576040805162461bcd60e51b815260206004820152601a60248201527f73657474696e6720636f6d7074726f6c6c6572206661696c6564000000000000604482015290519081900360640190fd5b61167f612c16565b600955670de0b6b3a7640000600a5561169786612c1a565b905080156116d65760405162461bcd60e51b81526004018080602001828103825260228152602001806148766022913960400191505060405180910390fd5b83516116e99060019060208701906146b9565b5082516116fd9060029060208601906146b9565b50506003805460ff90921660ff199283161790556000805490911660011790555050505050565b60008061172f612c16565b6009549091508082141561174857600092505050610fff565b60006117526128cb565b600b54600c54600a54600654604080516315f2405360e01b815260048101879052602481018690526044810185905290519596509394929391926000926001600160a01b03909216916315f24053916064808301926020929190829003018186803b1580156117c057600080fd5b505afa1580156117d4573d6000803e3d6000fd5b505050506040513d60208110156117ea57600080fd5b5051905065048c27395000811115611849576040805162461bcd60e51b815260206004820152601c60248201527f626f72726f772072617465206973206162737572646c79206869676800000000604482015290519081900360640190fd5b6000806118568989612d8f565b9092509050600082600381111561186957fe5b146118bb576040805162461bcd60e51b815260206004820152601f60248201527f636f756c64206e6f742063616c63756c61746520626c6f636b2064656c746100604482015290519081900360640190fd5b6118c36146a6565b6000806000806118e160405180602001604052808a81525087612db2565b909750945060008760038111156118f457fe5b14611926576119116009600689600381111561190c57fe5b612e1a565b9e505050505050505050505050505050610fff565b611930858c612878565b9097509350600087600381111561194357fe5b1461195b576119116009600189600381111561190c57fe5b611965848c612e80565b9097509250600087600381111561197857fe5b14611990576119116009600489600381111561190c57fe5b6119ab6040518060200160405280600854815250858c612ea6565b909750915060008760038111156119be57fe5b146119d6576119116009600589600381111561190c57fe5b6119e1858a8b612ea6565b909750905060008760038111156119f457fe5b14611a0c576119116009600389600381111561190c57fe5b60098e9055600a819055600b839055600c829055604080518d8152602081018690528082018390526060810185905290517f4dec04e750ca11537cabcd8a9eab06494de08da3735bc8871cd41250e190bc049181900360800190a160009e50505050505050505050505050505090565b6000805460ff16611ac1576040805162461bcd60e51b815260206004820152600a6024820152691c994b595b9d195c995960b21b604482015290519081900360640190fd5b6000805460ff19168155611ad7333386866125ea565b1490506000805460ff1916600117905592915050565b600a5481565b6000611b00833484612f02565b509050611b3b81604051806040016040528060168152602001751b1a5c5d5a59185d19509bdc9c9bddc819985a5b195960521b815250610b9b565b505050565b6006546000906001600160a01b031663b8168816611b5c6128cb565b600b54600c546008546040518563ffffffff1660e01b81526004018085815260200184815260200183815260200182815260200194505050505060206040518083038186803b158015611bae57600080fd5b505afa158015611bc2573d6000803e3d6000fd5b505050506040513d6020811015611bd857600080fd5b5051905090565b6000805460ff16611c24576040805162461bcd60e51b815260206004820152600a6024820152691c994b595b9d195c995960b21b604482015290519081900360640190fd5b6000805460ff19169055611c3a33858585613034565b90506000805460ff191660011790559392505050565b60035460009061010090046001600160a01b03163314611c765761117960016045612103565b600480546001600160a01b038481166001600160a01b0319831681179093556040805191909216808252602082019390935281517fca4f2f25d0898edd99413412fb94012f9e54ec8142f9b093e7720646a95b16a9929181900390910190a160006112a1565b6000805460ff16611d21576040805162461bcd60e51b815260206004820152600a6024820152691c994b595b9d195c995960b21b604482015290519081900360640190fd5b6000805460ff19168155611d33611724565b14611d7e576040805162461bcd60e51b81526020600482015260166024820152751858d8dc9d59481a5b9d195c995cdd0819985a5b195960521b604482015290519081900360640190fd5b611d86610f9f565b90506000805460ff1916600117905590565b6001600160a01b0381166000908152600e6020526040812054819081908190818080611dc389612b62565b935090506000816003811115611dd557fe5b14611df35760095b975060009650869550859450611e269350505050565b611dfb61253b565b925090506000816003811115611e0d57fe5b14611e19576009611ddd565b5060009650919450925090505b9193509193565b6000610e8f82613210565b6000610e8f8261328f565b6001600160a01b039182166000908152600f6020908152604080832093909416825291909152205490565b6000611e7a8234613309565b509050610d97816040518060400160405280601881526020017f7265706179426f72726f77426568616c66206661696c65640000000000000000815250610b9b565b6004546000906001600160a01b031633141580611ed7575033155b15611eef57611ee860016000612103565b9050610fff565b60038054600480546001600160a01b03818116610100818102610100600160a81b0319871617968790556001600160a01b031990931690935560408051948390048216808652929095041660208401528351909391927ff9ffabca9c8276e99321725bcb43fb076a6c66a54b7f21c4e8146d8519b417dc92908290030190a1600454604080516001600160a01b038085168252909216602083015280517fca4f2f25d0898edd99413412fb94012f9e54ec8142f9b093e7720646a95b16a99281900390910190a160009250505090565b600080611fca611724565b90508015611ff057611fe8816010811115611fe157fe5b6040612103565b91505061113f565b6112a183612c1a565b6006546001600160a01b031681565b60035461010090046001600160a01b031681565b6006546000906001600160a01b03166315f240536120386128cb565b600b54600c546040518463ffffffff1660e01b815260040180848152602001838152602001828152602001935050505060206040518083038186803b158015611bae57600080fd5b6000805460ff166120c5576040805162461bcd60e51b815260206004820152600a6024820152691c994b595b9d195c995960b21b604482015290519081900360640190fd5b6000805460ff191681556120d7611724565b905080156120f5576113748160108111156120ee57fe5b6046612103565b611385836133b4565b600181565b60007f45b96fe442630264581b197e84bbada861235052c5a1aadfff9ea4e40a969aa083601081111561213257fe5b83605081111561213e57fe5b604080519283526020830191909152600082820152519081900360600190a18260108111156112a157fe5b60055460408051634ef4c3e160e01b81523060048201526001600160a01b03858116602483015260448201859052915160009384938493911691634ef4c3e19160648082019260209290919082900301818787803b1580156121ca57600080fd5b505af11580156121de573d6000803e3d6000fd5b505050506040513d60208110156121f457600080fd5b5051905080156122185761220b6003601f83612e1a565b9250600091506125349050565b612220612c16565b600954146122345761220b600a6022612103565b61223c614737565b61224461253b565b604083018190526020830182600381111561225b57fe5b600381111561226657fe5b905250600090508160200151600381111561227d57fe5b146122a757612299600960218360200151600381111561190c57fe5b935060009250612534915050565b6122b1868661345c565b60c08201819052604080516020810182529083015181526122d291906134f8565b60608301819052602083018260038111156122e957fe5b60038111156122f457fe5b905250600090508160200151600381111561230b57fe5b1461235d576040805162461bcd60e51b815260206004820181905260248201527f4d494e545f45584348414e47455f43414c43554c4154494f4e5f4641494c4544604482015290519081900360640190fd5b61236d600d548260600151612e80565b608083018190526020830182600381111561238457fe5b600381111561238f57fe5b90525060009050816020015160038111156123a657fe5b146123e25760405162461bcd60e51b81526004018080602001828103825260288152602001806149ed6028913960400191505060405180910390fd5b6001600160a01b0386166000908152600e6020526040902054606082015161240a9190612e80565b60a083018190526020830182600381111561242157fe5b600381111561242c57fe5b905250600090508160200151600381111561244357fe5b1461247f5760405162461bcd60e51b815260040180806020018281038252602b815260200180614898602b913960400191505060405180910390fd5b6080810151600d5560a08101516001600160a01b0387166000818152600e60209081526040918290209390935560c084015160608086015183519485529484019190915282820193909352517f4c209b5fc8ad50758f13e2e1088ba56a560dff690a1c6fef26394f4c03821c4f929181900390910190a1606081015160408051918252516001600160a01b0388169130916000805160206149348339815191529181900360200190a360c00151600093509150505b9250929050565b600d54600090819080612556575050600754600091506125e6565b60006125606128cb565b9050600061256c6146a6565b600061257d84600b54600c5461350f565b93509050600081600381111561258f57fe5b146125a4579550600094506125e69350505050565b6125ae838661354d565b9250905060008160038111156125c057fe5b146125d5579550600094506125e69350505050565b50516000955093506125e692505050565b9091565b600554604080516317b9b84b60e31b81523060048201526001600160a01b03868116602483015285811660448301526064820185905291516000938493169163bdcdc25891608480830192602092919082900301818787803b15801561264f57600080fd5b505af1158015612663573d6000803e3d6000fd5b505050506040513d602081101561267957600080fd5b505190508015612698576126906003604a83612e1a565b915050612870565b836001600160a01b0316856001600160a01b031614156126be576126906002604b612103565b60006001600160a01b0387811690871614156126dd5750600019612705565b506001600160a01b038086166000908152600f60209081526040808320938a16835292905220545b6000806000806127158589612d8f565b9094509250600084600381111561272857fe5b14612746576127396009604b612103565b9650505050505050612870565b6001600160a01b038a166000908152600e60205260409020546127699089612d8f565b9094509150600084600381111561277c57fe5b1461278d576127396009604c612103565b6001600160a01b0389166000908152600e60205260409020546127b09089612e80565b909450905060008460038111156127c357fe5b146127d4576127396009604d612103565b6001600160a01b03808b166000908152600e6020526040808220859055918b16815220819055600019851461282c576001600160a01b03808b166000908152600f60209081526040808320938f168352929052208390555b886001600160a01b03168a6001600160a01b03166000805160206149348339815191528a6040518082815260200191505060405180910390a3600096505050505050505b949350505050565b60008060006128856146a6565b61288f8686612db2565b909250905060008260038111156128a257fe5b146128b35750915060009050612534565b60006128be826135fd565b9350935050509250929050565b60008060006128da4734612d8f565b909250905060008260038111156128ed57fe5b14610ffb576040805162461bcd60e51b815260206004820152600a60248201526926b0ba341032b93937b960b11b604482015290519081900360640190fd5b60008054819060ff16612973576040805162461bcd60e51b815260206004820152600a6024820152691c994b595b9d195c995960b21b604482015290519081900360640190fd5b6000805460ff19168155612985611724565b905080156129a357610b6a81601081111561299c57fe5b6036612103565b610b8133338661360c565b600354600090819061010090046001600160a01b031633146129d657611fe860016031612103565b6129de612c16565b600954146129f257611fe8600a6033612103565b826129fb6128cb565b1015612a0d57611fe8600e6032612103565b600c54831115612a2357611fe860026034612103565b50600c5482810390811115612a695760405162461bcd60e51b8152600401808060200182810382526024815260200180614a496024913960400191505060405180910390fd5b600c819055600354612a899061010090046001600160a01b03168461395a565b600354604080516101009092046001600160a01b0316825260208201859052818101839052517f3bad0c59cf2f06e7314077049f48a93578cd16f5ef92329f1dab1420a99c177e916060908290030190a160006112a1565b6000805460ff16612b26576040805162461bcd60e51b815260206004820152600a6024820152691c994b595b9d195c995960b21b604482015290519081900360640190fd5b6000805460ff19168155612b38611724565b90508015612b5657611374816010811115612b4f57fe5b6027612103565b61138533600085613990565b6001600160a01b038116600090815260106020526040812080548291829182918291612b99575060009450849350612c1192505050565b612ba98160000154600a54613e57565b90945092506000846003811115612bbc57fe5b14612bd1575091935060009250612c11915050565b612bdf838260010154613e96565b90945091506000846003811115612bf257fe5b14612c07575091935060009250612c11915050565b5060009450925050505b915091565b4390565b600354600090819061010090046001600160a01b03163314612c4257611fe860016042612103565b612c4a612c16565b60095414612c5e57611fe8600a6041612103565b600660009054906101000a90046001600160a01b03169050826001600160a01b0316632191f92a6040518163ffffffff1660e01b815260040160206040518083038186803b158015612caf57600080fd5b505afa158015612cc3573d6000803e3d6000fd5b505050506040513d6020811015612cd957600080fd5b5051612d2c576040805162461bcd60e51b815260206004820152601c60248201527f6d61726b6572206d6574686f642072657475726e65642066616c736500000000604482015290519081900360640190fd5b600680546001600160a01b0319166001600160a01b03858116918217909255604080519284168352602083019190915280517fedffc32e068c7c95dfd4bdfd5c4d939a084d6b11c4199eac8436ed234d72f9269281900390910190a160006112a1565b600080838311612da6575060009050818303612534565b50600390506000612534565b6000612dbc6146a6565b600080612dcd866000015186613e57565b90925090506000826003811115612de057fe5b14612dff57506040805160208101909152600081529092509050612534565b60408051602081019091529081526000969095509350505050565b60007f45b96fe442630264581b197e84bbada861235052c5a1aadfff9ea4e40a969aa0846010811115612e4957fe5b846050811115612e5557fe5b604080519283526020830191909152818101859052519081900360600190a183601081111561287057fe5b600080838301848110612e9857600092509050612534565b506002915060009050612534565b6000806000612eb36146a6565b612ebd8787612db2565b90925090506000826003811115612ed057fe5b14612ee15750915060009050612efa565b612ef3612eed826135fd565b86612e80565b9350935050505b935093915050565b60008054819060ff16612f49576040805162461bcd60e51b815260206004820152600a6024820152691c994b595b9d195c995960b21b604482015290519081900360640190fd5b6000805460ff19168155612f5b611724565b90508015612f8657612f79816010811115612f7257fe5b600f612103565b92506000915061301d9050565b836001600160a01b031663a6afed956040518163ffffffff1660e01b8152600401602060405180830381600087803b158015612fc157600080fd5b505af1158015612fd5573d6000803e3d6000fd5b505050506040513d6020811015612feb57600080fd5b50519050801561300b57612f7981601081111561300457fe5b6010612103565b61301733878787613ec1565b92509250505b6000805460ff191660011790559094909350915050565b6005546040805163d02f735160e01b81523060048201526001600160a01b038781166024830152868116604483015285811660648301526084820185905291516000938493169163d02f73519160a480830192602092919082900301818787803b1580156130a157600080fd5b505af11580156130b5573d6000803e3d6000fd5b505050506040513d60208110156130cb57600080fd5b5051905080156130e2576126906003601b83612e1a565b846001600160a01b0316846001600160a01b03161415613108576126906006601c612103565b6001600160a01b0384166000908152600e60205260408120548190819061312f9087612d8f565b9093509150600083600381111561314257fe5b146131655761315a6009601a85600381111561190c57fe5b945050505050612870565b6001600160a01b0388166000908152600e60205260409020546131889087612e80565b9093509050600083600381111561319b57fe5b146131b35761315a6009601985600381111561190c57fe5b6001600160a01b038088166000818152600e60209081526040808320879055938c168083529184902085905583518a815293519193600080516020614934833981519152929081900390910190a360009998505050505050505050565b6000805460ff16613255576040805162461bcd60e51b815260206004820152600a6024820152691c994b595b9d195c995960b21b604482015290519081900360640190fd5b6000805460ff19168155613267611724565b905080156132855761137481601081111561327e57fe5b6008612103565b61138533846143b3565b6000805460ff166132d4576040805162461bcd60e51b815260206004820152600a6024820152691c994b595b9d195c995960b21b604482015290519081900360640190fd5b6000805460ff191681556132e6611724565b905080156132fd57611374816010811115612b4f57fe5b61138533846000613990565b60008054819060ff16613350576040805162461bcd60e51b815260206004820152600a6024820152691c994b595b9d195c995960b21b604482015290519081900360640190fd5b6000805460ff19168155613362611724565b9050801561338d5761338081601081111561337957fe5b6035612103565b92506000915061339e9050565b61339833868661360c565b92509250505b6000805460ff1916600117905590939092509050565b60035460009061010090046001600160a01b031633146133da5761117960016047612103565b6133e2612c16565b600954146133f657611179600a6048612103565b670de0b6b3a76400008211156134125761117960026049612103565b6008805490839055604080518281526020810185905281517faaa68312e2ea9d50e16af5068410ab56e1a1fd06037b1a35664812c30f821460929181900390910190a160006112a1565b6000336001600160a01b038416146134ad576040805162461bcd60e51b815260206004820152600f60248201526e0e6cadcc8cae440dad2e6dac2e8c6d608b1b604482015290519081900360640190fd5b8134146134f2576040805162461bcd60e51b815260206004820152600e60248201526d0ecc2d8eaca40dad2e6dac2e8c6d60931b604482015290519081900360640190fd5b50919050565b60008060006135056146a6565b61288f8686614647565b60008060008061351f8787612e80565b9092509050600082600381111561353257fe5b146135435750915060009050612efa565b612ef38186612d8f565b60006135576146a6565b60008061356c86670de0b6b3a7640000613e57565b9092509050600082600381111561357f57fe5b1461359e57506040805160208101909152600081529092509050612534565b6000806135ab8388613e96565b909250905060008260038111156135be57fe5b146135e057506040805160208101909152600081529094509250612534915050565b604080516020810190915290815260009890975095505050505050565b51670de0b6b3a7640000900490565b60055460408051631200453160e11b81523060048201526001600160a01b0386811660248301528581166044830152606482018590529151600093849384939116916324008a629160848082019260209290919082900301818787803b15801561367557600080fd5b505af1158015613689573d6000803e3d6000fd5b505050506040513d602081101561369f57600080fd5b5051905080156136c3576136b66003603883612e1a565b925060009150612efa9050565b6136cb612c16565b600954146136df576136b6600a6039612103565b6136e7614775565b6001600160a01b038616600090815260106020526040902060010154606082015261371186612b62565b608083018190526020830182600381111561372857fe5b600381111561373357fe5b905250600090508160200151600381111561374a57fe5b1461377457613766600960378360200151600381111561190c57fe5b935060009250612efa915050565b60001985141561378d5760808101516040820152613795565b604081018590525b6137a387826040015161345c565b60e0820181905260808201516137b891612d8f565b60a08301819052602083018260038111156137cf57fe5b60038111156137da57fe5b90525060009050816020015160038111156137f157fe5b1461382d5760405162461bcd60e51b815260040180806020018281038252603a8152602001806148fa603a913960400191505060405180910390fd5b61383d600b548260e00151612d8f565b60c083018190526020830182600381111561385457fe5b600381111561385f57fe5b905250600090508160200151600381111561387657fe5b146138b25760405162461bcd60e51b81526004018080602001828103825260318152602001806149546031913960400191505060405180910390fd5b60a080820180516001600160a01b03808a16600081815260106020908152604091829020948555600a5460019095019490945560c0870151600b81905560e088015195518251948f16855294840192909252828101949094526060820192909252608081019190915290517f1a2a22cb034d26d1854bdc6666a5b91fe25efbbb5dcad3b0355478d6f5c362a1929181900390910190a160e00151600097909650945050505050565b6040516001600160a01b0383169082156108fc029083906000818181858888f19350505050158015611b3b573d6000803e3d6000fd5b600082158061399d575081155b6139d85760405162461bcd60e51b8152600401808060200182810382526034815260200180614a156034913960400191505060405180910390fd5b6139e0614737565b6139e861253b565b60408301819052602083018260038111156139ff57fe5b6003811115613a0a57fe5b9052506000905081602001516003811115613a2157fe5b14613a4557613a3d6009602b8360200151600381111561190c57fe5b9150506112a1565b8315613ac6576060810184905260408051602081018252908201518152613a6c9085612878565b6080830181905260208301826003811115613a8357fe5b6003811115613a8e57fe5b9052506000905081602001516003811115613aa557fe5b14613ac157613a3d600960298360200151600381111561190c57fe5b613b3f565b613ae283604051806020016040528084604001518152506134f8565b6060830181905260208301826003811115613af957fe5b6003811115613b0457fe5b9052506000905081602001516003811115613b1b57fe5b14613b3757613a3d6009602a8360200151600381111561190c57fe5b608081018390525b60055460608201516040805163eabe7d9160e01b81523060048201526001600160a01b03898116602483015260448201939093529051600093929092169163eabe7d919160648082019260209290919082900301818787803b158015613ba457600080fd5b505af1158015613bb8573d6000803e3d6000fd5b505050506040513d6020811015613bce57600080fd5b505190508015613bee57613be56003602883612e1a565b925050506112a1565b613bf6612c16565b60095414613c0a57613be5600a602c612103565b613c1a600d548360600151612d8f565b60a0840181905260208401826003811115613c3157fe5b6003811115613c3c57fe5b9052506000905082602001516003811115613c5357fe5b14613c6f57613be56009602e8460200151600381111561190c57fe5b6001600160a01b0386166000908152600e60205260409020546060830151613c979190612d8f565b60c0840181905260208401826003811115613cae57fe5b6003811115613cb957fe5b9052506000905082602001516003811115613cd057fe5b14613cec57613be56009602d8460200151600381111561190c57fe5b8160800151613cf96128cb565b1015613d0b57613be5600e602f612103565b613d1986836080015161395a565b60a0820151600d5560c08201516001600160a01b0387166000818152600e6020908152604091829020939093556060850151815190815290513093600080516020614934833981519152928290030190a36080820151606080840151604080516001600160a01b038b168152602081019490945283810191909152517fe5b754fb1abb7f01b499791d0b820ae3b6af3424ac1c59768edb53f4ec31a9299281900390910190a160055460808301516060840151604080516351dff98960e01b81523060048201526001600160a01b038b81166024830152604482019490945260648101929092525191909216916351dff98991608480830192600092919082900301818387803b158015613e2c57600080fd5b505af1158015613e40573d6000803e3d6000fd5b5060009250613e4d915050565b9695505050505050565b60008083613e6a57506000905080612534565b83830283858281613e7757fe5b0414613e8b57506002915060009050612534565b600092509050612534565b60008082613eaa5750600190506000612534565b6000838581613eb557fe5b04915091509250929050565b60055460408051632fe3f38f60e11b81523060048201526001600160a01b0384811660248301528781166044830152868116606483015260848201869052915160009384938493911691635fc7e71e9160a48082019260209290919082900301818787803b158015613f3257600080fd5b505af1158015613f46573d6000803e3d6000fd5b505050506040513d6020811015613f5c57600080fd5b505190508015613f8057613f736003601283612e1a565b9250600091506143aa9050565b613f88612c16565b60095414613f9c57613f73600a6016612103565b613fa4612c16565b846001600160a01b0316636c540baf6040518163ffffffff1660e01b815260040160206040518083038186803b158015613fdd57600080fd5b505afa158015613ff1573d6000803e3d6000fd5b505050506040513d602081101561400757600080fd5b50511461401a57613f73600a6011612103565b866001600160a01b0316866001600160a01b0316141561404057613f7360066017612103565b8461405157613f7360076015612103565b60001985141561406757613f7360076014612103565b60008061407589898961360c565b909250905081156140a55761409682601081111561408f57fe5b6018612103565b9450600093506143aa92505050565b6005546040805163c488847b60e01b81523060048201526001600160a01b038981166024830152604482018590528251600094859492169263c488847b926064808301939192829003018186803b1580156140ff57600080fd5b505afa158015614113573d6000803e3d6000fd5b505050506040513d604081101561412957600080fd5b508051602090910151909250905081156141745760405162461bcd60e51b81526004018080602001828103825260338152602001806149856033913960400191505060405180910390fd5b80886001600160a01b03166370a082318c6040518263ffffffff1660e01b815260040180826001600160a01b03166001600160a01b0316815260200191505060206040518083038186803b1580156141cb57600080fd5b505afa1580156141df573d6000803e3d6000fd5b505050506040513d60208110156141f557600080fd5b5051101561424a576040805162461bcd60e51b815260206004820152601860248201527f4c49515549444154455f5345495a455f544f4f5f4d5543480000000000000000604482015290519081900360640190fd5b60006001600160a01b03891630141561427057614269308d8d85613034565b90506142fa565b6040805163b2a02ff160e01b81526001600160a01b038e811660048301528d81166024830152604482018590529151918b169163b2a02ff1916064808201926020929091908290030181600087803b1580156142cb57600080fd5b505af11580156142df573d6000803e3d6000fd5b505050506040513d60208110156142f557600080fd5b505190505b8015614344576040805162461bcd60e51b81526020600482015260146024820152731d1bdad95b881cd95a5e9d5c994819985a5b195960621b604482015290519081900360640190fd5b604080516001600160a01b03808f168252808e1660208301528183018790528b1660608201526080810184905290517f298637f684da70674f26509b10f07ec2fbc77a335ab1e7d6215a4b2484d8bb529181900360a00190a16000975092955050505050505b94509492505050565b6005546040805163368f515360e21b81523060048201526001600160a01b0385811660248301526044820185905291516000938493169163da3d454c91606480830192602092919082900301818787803b15801561441057600080fd5b505af1158015614424573d6000803e3d6000fd5b505050506040513d602081101561443a57600080fd5b505190508015614459576144516003600e83612e1a565b915050610e8f565b614461612c16565b6009541461447457614451600a80612103565b8261447d6128cb565b101561448f57614451600e6009612103565b6144976147bb565b6144a085612b62565b60208301819052828260038111156144b457fe5b60038111156144bf57fe5b90525060009050815160038111156144d357fe5b146144f8576144ef600960078360000151600381111561190c57fe5b92505050610e8f565b614506816020015185612e80565b604083018190528282600381111561451a57fe5b600381111561452557fe5b905250600090508151600381111561453957fe5b14614555576144ef6009600c8360000151600381111561190c57fe5b614561600b5485612e80565b606083018190528282600381111561457557fe5b600381111561458057fe5b905250600090508151600381111561459457fe5b146145b0576144ef6009600b8360000151600381111561190c57fe5b6145ba858561395a565b604080820180516001600160a01b03881660008181526010602090815290859020928355600a54600190930192909255606080860151600b81905593518551928352928201899052818501929092529081019190915290517f13ed6866d4e1ee6da46f845c46d7e54120883d75c5ea9a2dacc1c4ca8984ab809181900360800190a1600095945050505050565b60006146516146a6565b600080614666670de0b6b3a764000087613e57565b9092509050600082600381111561467957fe5b1461469857506040805160208101909152600081529092509050612534565b6128be81866000015161354d565b6040518060200160405280600081525090565b828054600181600116156101000203166002900490600052602060002090601f016020900481019282601f106146fa57805160ff1916838001178555614727565b82800160010185558215614727579182015b8281111561472757825182559160200191906001019061470c565b506147339291506147e4565b5090565b6040805160e0810190915280600081526020016000815260200160008152602001600081526020016000815260200160008152602001600081525090565b6040805161010081019091528060008152602001600081526020016000815260200160008152602001600081526020016000815260200160008152602001600081525090565b604080516080810190915280600081526020016000815260200160008152602001600081525090565b610fff91905b8082111561473357600081556001016147ea56fe6f6e6c792061646d696e206d617920696e697469616c697a6520746865206d61726b65746d61726b6574206d6179206f6e6c7920626520696e697469616c697a6564206f6e6365696e697469616c2065786368616e67652072617465206d7573742062652067726561746572207468616e207a65726f2e73657474696e6720696e7465726573742072617465206d6f64656c206661696c65644d494e545f4e45575f4143434f554e545f42414c414e43455f43414c43554c4154494f4e5f4641494c4544626f72726f7742616c616e636553746f7265643a20626f72726f7742616c616e636553746f726564496e7465726e616c206661696c656452455041595f424f52524f575f4e45575f4143434f554e545f424f52524f575f42414c414e43455f43414c43554c4154494f4e5f4641494c4544ddf252ad1be2c89b69c2b068fc378daa952ba7f163c4a11628f55a4df523b3ef52455041595f424f52524f575f4e45575f544f54414c5f42414c414e43455f43414c43554c4154494f4e5f4641494c45444c49515549444154455f434f4d5054524f4c4c45525f43414c43554c4154455f414d4f554e545f5345495a455f4641494c454465786368616e67655261746553746f7265643a2065786368616e67655261746553746f726564496e7465726e616c206661696c65644d494e545f4e45575f544f54414c5f535550504c595f43414c43554c4154494f4e5f4641494c45446f6e65206f662072656465656d546f6b656e73496e206f722072656465656d416d6f756e74496e206d757374206265207a65726f72656475636520726573657276657320756e657870656374656420756e646572666c6f77a265627a7a72315820c0dc171c73099b60b29c8439c0b4934ff45314ec842e79dc4b45c9f390137c3c64736f6c634300051100326f6e6c792061646d696e206d617920696e697469616c697a6520746865206d61726b65746d61726b6574206d6179206f6e6c7920626520696e697469616c697a6564206f6e6365696e697469616c2065786368616e67652072617465206d7573742062652067726561746572207468616e207a65726f2e73657474696e6720696e7465726573742072617465206d6f64656c206661696c6564",
  "devdoc": {
    "author": "rLending",
    "methods": {
      "_acceptAdmin()": {
        "details": "Admin function for pending admin to accept role and update admin",
        "return": "uint 0=success, otherwise a failure (see ErrorReporter.sol for details)"
      },
      "_reduceReserves(uint256)": {
        "params": {
          "reduceAmount": "Amount of reduction to reserves"
        },
        "return": "uint 0=success, otherwise a failure (see ErrorReporter.sol for details)"
      },
      "_setComptroller(address)": {
        "details": "Admin function to set a new comptroller",
        "return": "uint 0=success, otherwise a failure (see ErrorReporter.sol for details)"
      },
      "_setInterestRateModel(address)": {
        "details": "Admin function to accrue interest and update the interest rate model",
        "params": {
          "newInterestRateModel": "the new interest rate model to use"
        },
        "return": "uint 0=success, otherwise a failure (see ErrorReporter.sol for details)"
      },
      "_setPendingAdmin(address)": {
        "details": "Admin function to begin change of admin. The newPendingAdmin must call `_acceptAdmin` to finalize the transfer.",
        "params": {
          "newPendingAdmin": "New pending admin."
        },
        "return": "uint 0=success, otherwise a failure (see ErrorReporter.sol for details)"
      },
      "_setReserveFactor(uint256)": {
        "details": "Admin function to accrue interest and set a new reserve factor",
        "return": "uint 0=success, otherwise a failure (see ErrorReporter.sol for details)"
      },
      "accrueInterest()": {
        "details": "This calculates interest accrued from the last checkpointed block  up to the current block and writes new checkpoint to storage."
      },
      "allowance(address,address)": {
        "params": {
          "owner": "The address of the account which owns the tokens to be spent",
          "spender": "The address of the account which may transfer tokens"
        },
        "return": "The number of tokens allowed to be spent (-1 means infinite)"
      },
      "approve(address,uint256)": {
        "details": "This will overwrite the approval amount for `spender` and is subject to issues noted [here](https://eips.ethereum.org/EIPS/eip-20#approve)",
        "params": {
          "amount": "The number of tokens that are approved (-1 means infinite)",
          "spender": "The address of the account which may transfer tokens"
        },
        "return": "Whether or not the approval succeeded"
      },
      "balanceOf(address)": {
        "params": {
          "owner": "The address of the account to query"
        },
        "return": "The number of tokens owned by `owner`"
      },
      "balanceOfUnderlying(address)": {
        "details": "This also accrues interest in a transaction",
        "params": {
          "owner": "The address of the account to query"
        },
        "return": "The amount of underlying owned by `owner`"
      },
      "borrow(uint256)": {
        "params": {
          "borrowAmount": "The amount of the underlying asset to borrow"
        },
        "return": "uint 0=success, otherwise a failure (see ErrorReporter.sol for details)"
      },
      "borrowBalanceCurrent(address)": {
        "params": {
          "account": "The address whose balance should be calculated after updating borrowIndex"
        },
        "return": "The calculated balance"
      },
      "borrowBalanceStored(address)": {
        "params": {
          "account": "The address whose balance should be calculated"
        },
        "return": "The calculated balance"
      },
      "borrowRatePerBlock()": {
        "return": "The borrow interest rate per block, scaled by 1e18"
      },
      "constructor": {
        "params": {
          "admin_": "Address of the administrator of this token",
          "comptroller_": "The address of the Comptroller",
          "decimals_": "ERC-20 decimal precision of this token",
          "initialExchangeRateMantissa_": "The initial exchange rate, scaled by 1e18",
          "interestRateModel_": "The address of the interest rate model",
          "name_": "ERC-20 name of this token",
          "symbol_": "ERC-20 symbol of this token"
        }
      },
      "exchangeRateCurrent()": {
        "return": "Calculated exchange rate scaled by 1e18"
      },
      "exchangeRateStored()": {
        "details": "This function does not accrue interest before calculating the exchange rate",
        "return": "Calculated exchange rate scaled by 1e18"
      },
      "getAccountSnapshot(address)": {
        "details": "This is used by comptroller to more efficiently perform liquidity checks.",
        "params": {
          "account": "Address of the account to snapshot"
        },
        "return": "(possible error, token balance, borrow balance, exchange rate mantissa)"
      },
      "getCash()": {
        "return": "The quantity of underlying asset owned by this contract"
      },
      "initialize(address,address,uint256,string,string,uint8)": {
        "params": {
          "comptroller_": "The address of the Comptroller",
          "decimals_": "EIP-20 decimal precision of this token",
          "initialExchangeRateMantissa_": "The initial exchange rate, scaled by 1e18",
          "interestRateModel_": "The address of the interest rate model",
          "name_": "EIP-20 name of this token",
          "symbol_": "EIP-20 symbol of this token"
        }
      },
      "liquidateBorrow(address,address)": {
        "details": "Reverts upon any failure",
        "params": {
          "borrower": "The borrower of this cToken to be liquidated",
          "cTokenCollateral": "The market in which to seize collateral from the borrower"
        }
      },
      "mint()": {
        "details": "Reverts upon any failure"
      },
      "redeem(uint256)": {
        "details": "Accrues interest whether or not the operation succeeds, unless reverted",
        "params": {
          "redeemTokens": "The number of cTokens to redeem into underlying"
        },
        "return": "uint 0=success, otherwise a failure (see ErrorReporter.sol for details)"
      },
      "redeemUnderlying(uint256)": {
        "details": "Accrues interest whether or not the operation succeeds, unless reverted",
        "params": {
          "redeemAmount": "The amount of underlying to redeem"
        },
        "return": "uint 0=success, otherwise a failure (see ErrorReporter.sol for details)"
      },
      "repayBorrow()": {
        "details": "Reverts upon any failure"
      },
      "repayBorrowBehalf(address)": {
        "details": "Reverts upon any failure",
        "params": {
          "borrower": "the account with the debt being payed off"
        }
      },
      "seize(address,address,uint256)": {
        "details": "Will fail unless called by another cToken during the process of liquidation. Its absolutely critical to use msg.sender as the borrowed cToken and not a parameter.",
        "params": {
          "borrower": "The account having collateral seized",
          "liquidator": "The account receiving seized collateral",
          "seizeTokens": "The number of cTokens to seize"
        },
        "return": "uint 0=success, otherwise a failure (see ErrorReporter.sol for details)"
      },
      "supplyRatePerBlock()": {
        "return": "The supply interest rate per block, scaled by 1e18"
      },
      "totalBorrowsCurrent()": {
        "return": "The total borrows with interest"
      },
      "transfer(address,uint256)": {
        "params": {
          "amount": "The number of tokens to transfer",
          "dst": "The address of the destination account"
        },
        "return": "Whether or not the transfer succeeded"
      },
      "transferFrom(address,address,uint256)": {
        "params": {
          "amount": "The number of tokens to transfer",
          "dst": "The address of the destination account",
          "src": "The address of the source account"
        },
        "return": "Whether or not the transfer succeeded"
      }
    },
    "title": "rLending's MIEther Contract"
  },
  "userdoc": {
    "methods": {
      "_acceptAdmin()": {
        "notice": "Accepts transfer of admin rights. msg.sender must be pendingAdmin"
      },
      "_reduceReserves(uint256)": {
        "notice": "Accrues interest and reduces reserves by transferring to admin"
      },
      "_setComptroller(address)": {
        "notice": "Sets a new comptroller for the market"
      },
      "_setInterestRateModel(address)": {
        "notice": "accrues interest and updates the interest rate model using _setInterestRateModelFresh"
      },
      "_setPendingAdmin(address)": {
        "notice": "Begins transfer of admin rights. The newPendingAdmin must call `_acceptAdmin` to finalize the transfer."
      },
      "_setReserveFactor(uint256)": {
        "notice": "accrues interest and sets a new reserve factor for the protocol using _setReserveFactorFresh"
      },
      "accrueInterest()": {
        "notice": "Applies accrued interest to total borrows and reserves"
      },
      "allowance(address,address)": {
        "notice": "Get the current allowance from `owner` for `spender`"
      },
      "approve(address,uint256)": {
        "notice": "Approve `spender` to transfer up to `amount` from `src`"
      },
      "balanceOf(address)": {
        "notice": "Get the token balance of the `owner`"
      },
      "balanceOfUnderlying(address)": {
        "notice": "Get the underlying balance of the `owner`"
      },
      "borrow(uint256)": {
        "notice": "Sender borrows assets from the protocol to their own address"
      },
      "borrowBalanceCurrent(address)": {
        "notice": "Accrue interest to updated borrowIndex and then calculate account's borrow balance using the updated borrowIndex"
      },
      "borrowBalanceStored(address)": {
        "notice": "Return the borrow balance of account based on stored data"
      },
      "borrowRatePerBlock()": {
        "notice": "Returns the current per-block borrow interest rate for this cToken"
      },
      "constructor": "Construct a new MIEther money market",
      "exchangeRateCurrent()": {
        "notice": "Accrue interest then return the up-to-date exchange rate"
      },
      "exchangeRateStored()": {
        "notice": "Calculates the exchange rate from the underlying to the CToken"
      },
      "getAccountSnapshot(address)": {
        "notice": "Get a snapshot of the account's balances, and the cached exchange rate"
      },
      "getCash()": {
        "notice": "Get cash balance of this cToken in the underlying asset"
      },
      "initialize(address,address,uint256,string,string,uint8)": {
        "notice": "Initialize the money market"
      },
      "liquidateBorrow(address,address)": {
        "notice": "The sender liquidates the borrowers collateral. The collateral seized is transferred to the liquidator."
      },
      "mint()": {
        "notice": "Sender supplies assets into the market and receives cTokens in exchange"
      },
      "redeem(uint256)": {
        "notice": "Sender redeems cTokens in exchange for the underlying asset"
      },
      "redeemUnderlying(uint256)": {
        "notice": "Sender redeems cTokens in exchange for a specified amount of underlying asset"
      },
      "repayBorrow()": {
        "notice": "Sender repays their own borrow"
      },
      "repayBorrowBehalf(address)": {
        "notice": "Sender repays a borrow belonging to borrower"
      },
      "seize(address,address,uint256)": {
        "notice": "Transfers collateral tokens (this market) to the liquidator."
      },
      "supplyRatePerBlock()": {
        "notice": "Returns the current per-block supply interest rate for this cToken"
      },
      "totalBorrowsCurrent()": {
        "notice": "Returns the current total borrows plus accrued interest"
      },
      "transfer(address,uint256)": {
        "notice": "Transfer `amount` tokens from `msg.sender` to `dst`"
      },
      "transferFrom(address,address,uint256)": {
        "notice": "Transfer `amount` tokens from `src` to `dst`"
      }
    },
    "notice": "CToken which wraps Ether"
  },
  "storageLayout": {
    "storage": [
      {
        "astId": 5247,
        "contract": "contracts/MIEther.sol:MIEther",
        "label": "_notEntered",
        "offset": 0,
        "slot": "0",
        "type": "t_bool"
      },
      {
        "astId": 5249,
        "contract": "contracts/MIEther.sol:MIEther",
        "label": "name",
        "offset": 0,
        "slot": "1",
        "type": "t_string_storage"
      },
      {
        "astId": 5251,
        "contract": "contracts/MIEther.sol:MIEther",
        "label": "symbol",
        "offset": 0,
        "slot": "2",
        "type": "t_string_storage"
      },
      {
        "astId": 5253,
        "contract": "contracts/MIEther.sol:MIEther",
        "label": "decimals",
        "offset": 0,
        "slot": "3",
        "type": "t_uint8"
      },
      {
        "astId": 5261,
        "contract": "contracts/MIEther.sol:MIEther",
        "label": "admin",
        "offset": 1,
        "slot": "3",
        "type": "t_address_payable"
      },
      {
        "astId": 5263,
        "contract": "contracts/MIEther.sol:MIEther",
        "label": "pendingAdmin",
        "offset": 0,
        "slot": "4",
        "type": "t_address_payable"
      },
      {
        "astId": 5265,
        "contract": "contracts/MIEther.sol:MIEther",
        "label": "comptroller",
        "offset": 0,
        "slot": "5",
        "type": "t_contract(ComptrollerInterface)29466"
      },
      {
        "astId": 5267,
        "contract": "contracts/MIEther.sol:MIEther",
        "label": "interestRateModel",
        "offset": 0,
        "slot": "6",
        "type": "t_contract(InterestRateModel)34124"
      },
      {
        "astId": 5269,
        "contract": "contracts/MIEther.sol:MIEther",
        "label": "initialExchangeRateMantissa",
        "offset": 0,
        "slot": "7",
        "type": "t_uint256"
      },
      {
        "astId": 5271,
        "contract": "contracts/MIEther.sol:MIEther",
        "label": "reserveFactorMantissa",
        "offset": 0,
        "slot": "8",
        "type": "t_uint256"
      },
      {
        "astId": 5273,
        "contract": "contracts/MIEther.sol:MIEther",
        "label": "accrualBlockNumber",
        "offset": 0,
        "slot": "9",
        "type": "t_uint256"
      },
      {
        "astId": 5275,
        "contract": "contracts/MIEther.sol:MIEther",
        "label": "borrowIndex",
        "offset": 0,
        "slot": "10",
        "type": "t_uint256"
      },
      {
        "astId": 5277,
        "contract": "contracts/MIEther.sol:MIEther",
        "label": "totalBorrows",
        "offset": 0,
        "slot": "11",
        "type": "t_uint256"
      },
      {
        "astId": 5279,
        "contract": "contracts/MIEther.sol:MIEther",
        "label": "totalReserves",
        "offset": 0,
        "slot": "12",
        "type": "t_uint256"
      },
      {
        "astId": 5281,
        "contract": "contracts/MIEther.sol:MIEther",
        "label": "totalSupply",
        "offset": 0,
        "slot": "13",
        "type": "t_uint256"
      },
      {
        "astId": 5285,
        "contract": "contracts/MIEther.sol:MIEther",
        "label": "accountTokens",
        "offset": 0,
        "slot": "14",
        "type": "t_mapping(t_address,t_uint256)"
      },
      {
        "astId": 5291,
        "contract": "contracts/MIEther.sol:MIEther",
        "label": "transferAllowances",
        "offset": 0,
        "slot": "15",
        "type": "t_mapping(t_address,t_mapping(t_address,t_uint256))"
      },
      {
        "astId": 5300,
        "contract": "contracts/MIEther.sol:MIEther",
        "label": "accountBorrows",
        "offset": 0,
        "slot": "16",
        "type": "t_mapping(t_address,t_struct(BorrowSnapshot)5296_storage)"
      }
    ],
    "types": {
      "t_address": {
        "encoding": "inplace",
        "label": "address",
        "numberOfBytes": "20"
      },
      "t_address_payable": {
        "encoding": "inplace",
        "label": "address payable",
        "numberOfBytes": "20"
      },
      "t_bool": {
        "encoding": "inplace",
        "label": "bool",
        "numberOfBytes": "1"
      },
      "t_contract(ComptrollerInterface)29466": {
        "encoding": "inplace",
        "label": "contract ComptrollerInterface",
        "numberOfBytes": "20"
      },
      "t_contract(InterestRateModel)34124": {
        "encoding": "inplace",
        "label": "contract InterestRateModel",
        "numberOfBytes": "20"
      },
      "t_mapping(t_address,t_mapping(t_address,t_uint256))": {
        "encoding": "mapping",
        "key": "t_address",
        "label": "mapping(address => mapping(address => uint256))",
        "numberOfBytes": "32",
        "value": "t_mapping(t_address,t_uint256)"
      },
      "t_mapping(t_address,t_struct(BorrowSnapshot)5296_storage)": {
        "encoding": "mapping",
        "key": "t_address",
        "label": "mapping(address => struct CTokenStorage.BorrowSnapshot)",
        "numberOfBytes": "32",
        "value": "t_struct(BorrowSnapshot)5296_storage"
      },
      "t_mapping(t_address,t_uint256)": {
        "encoding": "mapping",
        "key": "t_address",
        "label": "mapping(address => uint256)",
        "numberOfBytes": "32",
        "value": "t_uint256"
      },
      "t_string_storage": {
        "encoding": "bytes",
        "label": "string",
        "numberOfBytes": "32"
      },
      "t_struct(BorrowSnapshot)5296_storage": {
        "encoding": "inplace",
        "label": "struct CTokenStorage.BorrowSnapshot",
        "members": [
          {
            "astId": 5293,
            "contract": "contracts/MIEther.sol:MIEther",
            "label": "principal",
            "offset": 0,
            "slot": "0",
            "type": "t_uint256"
          },
          {
            "astId": 5295,
            "contract": "contracts/MIEther.sol:MIEther",
            "label": "interestIndex",
            "offset": 0,
            "slot": "1",
            "type": "t_uint256"
          }
        ],
        "numberOfBytes": "64"
      },
      "t_uint256": {
        "encoding": "inplace",
        "label": "uint256",
        "numberOfBytes": "32"
      },
      "t_uint8": {
        "encoding": "inplace",
        "label": "uint8",
        "numberOfBytes": "1"
      }
    }
  }
}