{
  "address": "0xb116ea14754F543488AFEc2cdb566a555772A56F",
  "abi": [
    {
      "constant": false,
      "inputs": [
        {
          "internalType": "contract CToken",
          "name": "cToken",
          "type": "address"
        },
        {
          "internalType": "address payable",
          "name": "account",
          "type": "address"
        }
      ],
      "name": "cTokenBalances",
      "outputs": [
        {
          "components": [
            {
              "internalType": "address",
              "name": "cToken",
              "type": "address"
            },
            {
              "internalType": "uint256",
              "name": "balanceOf",
              "type": "uint256"
            },
            {
              "internalType": "uint256",
              "name": "borrowBalanceCurrent",
              "type": "uint256"
            },
            {
              "internalType": "uint256",
              "name": "balanceOfUnderlying",
              "type": "uint256"
            },
            {
              "internalType": "uint256",
              "name": "tokenBalance",
              "type": "uint256"
            },
            {
              "internalType": "uint256",
              "name": "tokenAllowance",
              "type": "uint256"
            }
          ],
          "internalType": "struct RlendingLens.CTokenBalances",
          "name": "",
          "type": "tuple"
        }
      ],
      "payable": false,
      "stateMutability": "nonpayable",
      "type": "function"
    },
    {
      "constant": false,
      "inputs": [
        {
          "internalType": "contract CToken[]",
          "name": "cTokens",
          "type": "address[]"
        },
        {
          "internalType": "address payable",
          "name": "account",
          "type": "address"
        }
      ],
      "name": "cTokenBalancesAll",
      "outputs": [
        {
          "components": [
            {
              "internalType": "address",
              "name": "cToken",
              "type": "address"
            },
            {
              "internalType": "uint256",
              "name": "balanceOf",
              "type": "uint256"
            },
            {
              "internalType": "uint256",
              "name": "borrowBalanceCurrent",
              "type": "uint256"
            },
            {
              "internalType": "uint256",
              "name": "balanceOfUnderlying",
              "type": "uint256"
            },
            {
              "internalType": "uint256",
              "name": "tokenBalance",
              "type": "uint256"
            },
            {
              "internalType": "uint256",
              "name": "tokenAllowance",
              "type": "uint256"
            }
          ],
          "internalType": "struct RlendingLens.CTokenBalances[]",
          "name": "",
          "type": "tuple[]"
        }
      ],
      "payable": false,
      "stateMutability": "nonpayable",
      "type": "function"
    },
    {
      "constant": false,
      "inputs": [
        {
          "internalType": "contract CToken",
          "name": "cToken",
          "type": "address"
        }
      ],
      "name": "cTokenMetadata",
      "outputs": [
        {
          "components": [
            {
              "internalType": "address",
              "name": "cToken",
              "type": "address"
            },
            {
              "internalType": "uint256",
              "name": "exchangeRateCurrent",
              "type": "uint256"
            },
            {
              "internalType": "uint256",
              "name": "supplyRatePerBlock",
              "type": "uint256"
            },
            {
              "internalType": "uint256",
              "name": "borrowRatePerBlock",
              "type": "uint256"
            },
            {
              "internalType": "uint256",
              "name": "reserveFactorMantissa",
              "type": "uint256"
            },
            {
              "internalType": "uint256",
              "name": "totalBorrows",
              "type": "uint256"
            },
            {
              "internalType": "uint256",
              "name": "totalReserves",
              "type": "uint256"
            },
            {
              "internalType": "uint256",
              "name": "totalSupply",
              "type": "uint256"
            },
            {
              "internalType": "uint256",
              "name": "totalCash",
              "type": "uint256"
            },
            {
              "internalType": "bool",
              "name": "isListed",
              "type": "bool"
            },
            {
              "internalType": "uint256",
              "name": "collateralFactorMantissa",
              "type": "uint256"
            },
            {
              "internalType": "address",
              "name": "underlyingAssetAddress",
              "type": "address"
            },
            {
              "internalType": "uint256",
              "name": "cTokenDecimals",
              "type": "uint256"
            },
            {
              "internalType": "uint256",
              "name": "underlyingDecimals",
              "type": "uint256"
            }
          ],
          "internalType": "struct RlendingLens.CTokenMetadata",
          "name": "",
          "type": "tuple"
        }
      ],
      "payable": false,
      "stateMutability": "nonpayable",
      "type": "function"
    },
    {
      "constant": false,
      "inputs": [
        {
          "internalType": "contract CToken[]",
          "name": "cTokens",
          "type": "address[]"
        }
      ],
      "name": "cTokenMetadataAll",
      "outputs": [
        {
          "components": [
            {
              "internalType": "address",
              "name": "cToken",
              "type": "address"
            },
            {
              "internalType": "uint256",
              "name": "exchangeRateCurrent",
              "type": "uint256"
            },
            {
              "internalType": "uint256",
              "name": "supplyRatePerBlock",
              "type": "uint256"
            },
            {
              "internalType": "uint256",
              "name": "borrowRatePerBlock",
              "type": "uint256"
            },
            {
              "internalType": "uint256",
              "name": "reserveFactorMantissa",
              "type": "uint256"
            },
            {
              "internalType": "uint256",
              "name": "totalBorrows",
              "type": "uint256"
            },
            {
              "internalType": "uint256",
              "name": "totalReserves",
              "type": "uint256"
            },
            {
              "internalType": "uint256",
              "name": "totalSupply",
              "type": "uint256"
            },
            {
              "internalType": "uint256",
              "name": "totalCash",
              "type": "uint256"
            },
            {
              "internalType": "bool",
              "name": "isListed",
              "type": "bool"
            },
            {
              "internalType": "uint256",
              "name": "collateralFactorMantissa",
              "type": "uint256"
            },
            {
              "internalType": "address",
              "name": "underlyingAssetAddress",
              "type": "address"
            },
            {
              "internalType": "uint256",
              "name": "cTokenDecimals",
              "type": "uint256"
            },
            {
              "internalType": "uint256",
              "name": "underlyingDecimals",
              "type": "uint256"
            }
          ],
          "internalType": "struct RlendingLens.CTokenMetadata[]",
          "name": "",
          "type": "tuple[]"
        }
      ],
      "payable": false,
      "stateMutability": "nonpayable",
      "type": "function"
    },
    {
      "constant": true,
      "inputs": [
        {
          "internalType": "contract CToken",
          "name": "cToken",
          "type": "address"
        }
      ],
      "name": "cTokenUnderlyingPrice",
      "outputs": [
        {
          "components": [
            {
              "internalType": "address",
              "name": "cToken",
              "type": "address"
            },
            {
              "internalType": "uint256",
              "name": "underlyingPrice",
              "type": "uint256"
            }
          ],
          "internalType": "struct RlendingLens.CTokenUnderlyingPrice",
          "name": "",
          "type": "tuple"
        }
      ],
      "payable": false,
      "stateMutability": "view",
      "type": "function"
    },
    {
      "constant": true,
      "inputs": [
        {
          "internalType": "contract CToken[]",
          "name": "cTokens",
          "type": "address[]"
        }
      ],
      "name": "cTokenUnderlyingPriceAll",
      "outputs": [
        {
          "components": [
            {
              "internalType": "address",
              "name": "cToken",
              "type": "address"
            },
            {
              "internalType": "uint256",
              "name": "underlyingPrice",
              "type": "uint256"
            }
          ],
          "internalType": "struct RlendingLens.CTokenUnderlyingPrice[]",
          "name": "",
          "type": "tuple[]"
        }
      ],
      "payable": false,
      "stateMutability": "view",
      "type": "function"
    },
    {
      "constant": true,
      "inputs": [
        {
          "internalType": "contract ComptrollerLensInterface",
          "name": "comptroller",
          "type": "address"
        },
        {
          "internalType": "address",
          "name": "account",
          "type": "address"
        }
      ],
      "name": "getAccountLimits",
      "outputs": [
        {
          "components": [
            {
              "internalType": "contract CToken[]",
              "name": "markets",
              "type": "address[]"
            },
            {
              "internalType": "uint256",
              "name": "liquidity",
              "type": "uint256"
            },
            {
              "internalType": "uint256",
              "name": "shortfall",
              "type": "uint256"
            }
          ],
          "internalType": "struct RlendingLens.AccountLimits",
          "name": "",
          "type": "tuple"
        }
      ],
      "payable": false,
      "stateMutability": "view",
      "type": "function"
    },
    {
      "constant": true,
      "inputs": [
        {
          "internalType": "contract RLEN",
          "name": "comp",
          "type": "address"
        },
        {
          "internalType": "address",
          "name": "account",
          "type": "address"
        }
      ],
      "name": "getCompBalanceMetadata",
      "outputs": [
        {
          "components": [
            {
              "internalType": "uint256",
              "name": "balance",
              "type": "uint256"
            },
            {
              "internalType": "uint256",
              "name": "votes",
              "type": "uint256"
            },
            {
              "internalType": "address",
              "name": "delegate",
              "type": "address"
            }
          ],
          "internalType": "struct RlendingLens.CompBalanceMetadata",
          "name": "",
          "type": "tuple"
        }
      ],
      "payable": false,
      "stateMutability": "view",
      "type": "function"
    },
    {
      "constant": false,
      "inputs": [
        {
          "internalType": "contract RLEN",
          "name": "comp",
          "type": "address"
        },
        {
          "internalType": "contract ComptrollerLensInterface",
          "name": "comptroller",
          "type": "address"
        },
        {
          "internalType": "address",
          "name": "account",
          "type": "address"
        }
      ],
      "name": "getCompBalanceMetadataExt",
      "outputs": [
        {
          "components": [
            {
              "internalType": "uint256",
              "name": "balance",
              "type": "uint256"
            },
            {
              "internalType": "uint256",
              "name": "votes",
              "type": "uint256"
            },
            {
              "internalType": "address",
              "name": "delegate",
              "type": "address"
            },
            {
              "internalType": "uint256",
              "name": "allocated",
              "type": "uint256"
            }
          ],
          "internalType": "struct RlendingLens.CompBalanceMetadataExt",
          "name": "",
          "type": "tuple"
        }
      ],
      "payable": false,
      "stateMutability": "nonpayable",
      "type": "function"
    },
    {
      "constant": true,
      "inputs": [
        {
          "internalType": "contract RLEN",
          "name": "comp",
          "type": "address"
        },
        {
          "internalType": "address",
          "name": "account",
          "type": "address"
        },
        {
          "internalType": "uint32[]",
          "name": "blockNumbers",
          "type": "uint32[]"
        }
      ],
      "name": "getCompVotes",
      "outputs": [
        {
          "components": [
            {
              "internalType": "uint256",
              "name": "blockNumber",
              "type": "uint256"
            },
            {
              "internalType": "uint256",
              "name": "votes",
              "type": "uint256"
            }
          ],
          "internalType": "struct RlendingLens.CompVotes[]",
          "name": "",
          "type": "tuple[]"
        }
      ],
      "payable": false,
      "stateMutability": "view",
      "type": "function"
    },
    {
      "constant": true,
      "inputs": [
        {
          "internalType": "contract GovernorAlpha",
          "name": "governor",
          "type": "address"
        },
        {
          "internalType": "uint256[]",
          "name": "proposalIds",
          "type": "uint256[]"
        }
      ],
      "name": "getGovProposals",
      "outputs": [
        {
          "components": [
            {
              "internalType": "uint256",
              "name": "proposalId",
              "type": "uint256"
            },
            {
              "internalType": "address",
              "name": "proposer",
              "type": "address"
            },
            {
              "internalType": "uint256",
              "name": "eta",
              "type": "uint256"
            },
            {
              "internalType": "address[]",
              "name": "targets",
              "type": "address[]"
            },
            {
              "internalType": "uint256[]",
              "name": "values",
              "type": "uint256[]"
            },
            {
              "internalType": "string[]",
              "name": "signatures",
              "type": "string[]"
            },
            {
              "internalType": "bytes[]",
              "name": "calldatas",
              "type": "bytes[]"
            },
            {
              "internalType": "uint256",
              "name": "startBlock",
              "type": "uint256"
            },
            {
              "internalType": "uint256",
              "name": "endBlock",
              "type": "uint256"
            },
            {
              "internalType": "uint256",
              "name": "forVotes",
              "type": "uint256"
            },
            {
              "internalType": "uint256",
              "name": "againstVotes",
              "type": "uint256"
            },
            {
              "internalType": "bool",
              "name": "canceled",
              "type": "bool"
            },
            {
              "internalType": "bool",
              "name": "executed",
              "type": "bool"
            }
          ],
          "internalType": "struct RlendingLens.GovProposal[]",
          "name": "",
          "type": "tuple[]"
        }
      ],
      "payable": false,
      "stateMutability": "view",
      "type": "function"
    },
    {
      "constant": true,
      "inputs": [
        {
          "internalType": "contract GovernorAlpha",
          "name": "governor",
          "type": "address"
        },
        {
          "internalType": "address",
          "name": "voter",
          "type": "address"
        },
        {
          "internalType": "uint256[]",
          "name": "proposalIds",
          "type": "uint256[]"
        }
      ],
      "name": "getGovReceipts",
      "outputs": [
        {
          "components": [
            {
              "internalType": "uint256",
              "name": "proposalId",
              "type": "uint256"
            },
            {
              "internalType": "bool",
              "name": "hasVoted",
              "type": "bool"
            },
            {
              "internalType": "bool",
              "name": "support",
              "type": "bool"
            },
            {
              "internalType": "uint96",
              "name": "votes",
              "type": "uint96"
            }
          ],
          "internalType": "struct RlendingLens.GovReceipt[]",
          "name": "",
          "type": "tuple[]"
        }
      ],
      "payable": false,
      "stateMutability": "view",
      "type": "function"
    }
  ],
  "transactionHash": "0x4e35284f44069a5a2a93ab61a0090a62ba14bb0dc3c83c7e481e53c0748eedfc",
  "args": [],
  "solcInputHash": "b5a113507e380d935218651336b00698",
  "bytecode": "0x608060405234801561001057600080fd5b50613544806100206000396000f3fe608060405234801561001057600080fd5b50600436106100b45760003560e01c8063595642191161007157806359564219146101825780637dd8f6d9146101a257806396994869146101c2578063995ed99f146101e2578063bdf950c914610202578063c5ae593414610222576100b4565b80630972bf8b146100b9578063158eca8b146100e25780631ea63741146101025780632b2d5ed614610122578063416405d7146101425780634b70d84b14610162575b600080fd5b6100cc6100c73660046124ca565b610242565b6040516100d99190613295565b60405180910390f35b6100f56100f036600461258c565b6102e5565b6040516100d99190613349565b61011561011036600461270e565b610a6c565b6040516100d99190613366565b610135610130366004612489565b610df3565b6040516100d991906132b7565b6101556101503660046125aa565b610e8f565b6040516100d99190613374565b610175610170366004612489565b611038565b6040516100d991906132a6565b6101956101903660046126a7565b6110c9565b6040516100d991906132c8565b6101b56101b03660046125aa565b611221565b6040516100d9919061332a565b6101d56101d0366004612652565b611379565b6040516100d991906132d9565b6101f56101f03660046125f8565b611535565b6040516100d991906132ea565b6102156102103660046125aa565b61168f565b6040516100d9919061333b565b61023561023036600461258c565b611a2f565b6040516100d99190613358565b6040805183815260208085028201019091526060908390829082801561028257816020015b61026f611d93565b8152602001906001900390816102675790505b50905060005b828110156102d9576102ba87878381811061029f57fe5b90506020020160206102b4919081019061258c565b8661168f565b8282815181106102c657fe5b6020908102919091010152600101610288565b509150505b9392505050565b6102ed611dd2565b6000826001600160a01b031663bd6d894d6040518163ffffffff1660e01b8152600401602060405180830381600087803b15801561032a57600080fd5b505af115801561033e573d6000803e3d6000fd5b505050506040513d601f19601f8201168201806040525061036291908101906127a3565b90506000836001600160a01b0316635fe3b5676040518163ffffffff1660e01b815260040160206040518083038186803b15801561039f57600080fd5b505afa1580156103b3573d6000803e3d6000fd5b505050506040513d601f19601f820116820180604052506103d791908101906125da565b9050600080826001600160a01b0316638e8f294b876040518263ffffffff1660e01b81526004016104089190613243565b604080518083038186803b15801561041f57600080fd5b505afa158015610433573d6000803e3d6000fd5b505050506040513d601f19601f820116820180604052506104579190810190612552565b915091506000806104fb886001600160a01b03166395d89b416040518163ffffffff1660e01b815260040160006040518083038186803b15801561049a57600080fd5b505afa1580156104ae573d6000803e3d6000fd5b505050506040513d6000823e601f3d908101601f191682016040526104d69190810190612751565b6040518060400160405280600781526020016636b4a2ba3432b960c91b815250611bc1565b1561050c575060009050601261066c565b6000889050806001600160a01b0316636f307dc36040518163ffffffff1660e01b815260040160206040518083038186803b15801561054a57600080fd5b505afa15801561055e573d6000803e3d6000fd5b505050506040513d601f19601f8201168201806040525061058291908101906123a7565b9250806001600160a01b0316636f307dc36040518163ffffffff1660e01b815260040160206040518083038186803b1580156105bd57600080fd5b505afa1580156105d1573d6000803e3d6000fd5b505050506040513d601f19601f820116820180604052506105f591908101906123a7565b6001600160a01b031663313ce5676040518163ffffffff1660e01b815260040160206040518083038186803b15801561062d57600080fd5b505afa158015610641573d6000803e3d6000fd5b505050506040513d601f19601f8201168201806040525061066591908101906128e6565b60ff169150505b604051806101c00160405280896001600160a01b03168152602001878152602001896001600160a01b031663ae9d70b06040518163ffffffff1660e01b815260040160206040518083038186803b1580156106c657600080fd5b505afa1580156106da573d6000803e3d6000fd5b505050506040513d601f19601f820116820180604052506106fe91908101906127a3565b8152602001896001600160a01b031663f8f9da286040518163ffffffff1660e01b815260040160206040518083038186803b15801561073c57600080fd5b505afa158015610750573d6000803e3d6000fd5b505050506040513d601f19601f8201168201806040525061077491908101906127a3565b8152602001896001600160a01b031663173b99046040518163ffffffff1660e01b815260040160206040518083038186803b1580156107b257600080fd5b505afa1580156107c6573d6000803e3d6000fd5b505050506040513d601f19601f820116820180604052506107ea91908101906127a3565b8152602001896001600160a01b03166347bd37186040518163ffffffff1660e01b815260040160206040518083038186803b15801561082857600080fd5b505afa15801561083c573d6000803e3d6000fd5b505050506040513d601f19601f8201168201806040525061086091908101906127a3565b8152602001896001600160a01b0316638f840ddd6040518163ffffffff1660e01b815260040160206040518083038186803b15801561089e57600080fd5b505afa1580156108b2573d6000803e3d6000fd5b505050506040513d601f19601f820116820180604052506108d691908101906127a3565b8152602001896001600160a01b03166318160ddd6040518163ffffffff1660e01b815260040160206040518083038186803b15801561091457600080fd5b505afa158015610928573d6000803e3d6000fd5b505050506040513d601f19601f8201168201806040525061094c91908101906127a3565b8152602001896001600160a01b0316633b1d21a26040518163ffffffff1660e01b815260040160206040518083038186803b15801561098a57600080fd5b505afa15801561099e573d6000803e3d6000fd5b505050506040513d601f19601f820116820180604052506109c291908101906127a3565b81526020018515158152602001848152602001836001600160a01b03168152602001896001600160a01b031663313ce5676040518163ffffffff1660e01b815260040160206040518083038186803b158015610a1d57600080fd5b505afa158015610a31573d6000803e3d6000fd5b505050506040513d601f19601f82011682018060405250610a5591908101906128e6565b60ff16815260200191909152979650505050505050565b610a74611e55565b6040516370a0823160e01b81526000906001600160a01b038616906370a0823190610aa3908690600401613243565b60206040518083038186803b158015610abb57600080fd5b505afa158015610acf573d6000803e3d6000fd5b505050506040513d601f19601f82011682018060405250610af391908101906127a3565b6040516374d7814960e11b81529091506001600160a01b0385169063e9af029290610b22908690600401613243565b600060405180830381600087803b158015610b3c57600080fd5b505af1158015610b50573d6000803e3d6000fd5b50506040516370a0823160e01b8152600092506001600160a01b03881691506370a0823190610b83908790600401613243565b60206040518083038186803b158015610b9b57600080fd5b505afa158015610baf573d6000803e3d6000fd5b505050506040513d601f19601f82011682018060405250610bd391908101906127a3565b90506000856001600160a01b031663cc7ebdc4866040518263ffffffff1660e01b8152600401610c039190613243565b60206040518083038186803b158015610c1b57600080fd5b505afa158015610c2f573d6000803e3d6000fd5b505050506040513d601f19601f82011682018060405250610c5391908101906127a3565b90506000610c8882846040518060400160405280600e81526020016d1cdd5b4818dbdb5c081d1bdd185b60921b815250611c1a565b90506000610cbc82866040518060400160405280600d81526020016c1cdd5888185b1b1bd8d85d1959609a1b815250611c41565b905060405180608001604052808681526020018a6001600160a01b031663b4b5ea578a6040518263ffffffff1660e01b8152600401610cfb9190613243565b60206040518083038186803b158015610d1357600080fd5b505afa158015610d27573d6000803e3d6000fd5b505050506040513d601f19601f82011682018060405250610d4b9190810190612904565b6001600160601b031681526020018a6001600160a01b031663587cde1e8a6040518263ffffffff1660e01b8152600401610d859190613243565b60206040518083038186803b158015610d9d57600080fd5b505afa158015610db1573d6000803e3d6000fd5b505050506040513d601f19601f82011682018060405250610dd591908101906123a7565b6001600160a01b031681526020019190915298975050505050505050565b60408051828152602080840282010190915260609082908290828015610e3357816020015b610e20611e86565b815260200190600190039081610e185790505b50905060005b82811015610e8457610e65868683818110610e5057fe5b9050602002016020610230919081019061258c565b828281518110610e7157fe5b6020908102919091010152600101610e39565b509150505b92915050565b610e97611e9d565b6040805160608101918290526370a0823160e01b909152806001600160a01b0385166370a08231610ecb8660648501613243565b60206040518083038186803b158015610ee357600080fd5b505afa158015610ef7573d6000803e3d6000fd5b505050506040513d601f19601f82011682018060405250610f1b91908101906127a3565b8152602001846001600160a01b031663b4b5ea57856040518263ffffffff1660e01b8152600401610f4c9190613243565b60206040518083038186803b158015610f6457600080fd5b505afa158015610f78573d6000803e3d6000fd5b505050506040513d601f19601f82011682018060405250610f9c9190810190612904565b6001600160601b03168152602001846001600160a01b031663587cde1e856040518263ffffffff1660e01b8152600401610fd69190613243565b60206040518083038186803b158015610fee57600080fd5b505afa158015611002573d6000803e3d6000fd5b505050506040513d601f19601f8201168201806040525061102691908101906123a7565b6001600160a01b031690529392505050565b6040805182815260208084028201019091526060908290829082801561107857816020015b611065611dd2565b81526020019060019003908161105d5790505b50905060005b82811015610e84576110aa86868381811061109557fe5b90506020020160206100f0919081019061258c565b8282815181106110b657fe5b602090810291909101015260010161107e565b6060808383905060405190808252806020026020018201604052801561110957816020015b6110f6611ec7565b8152602001906001900390816110ee5790505b50905060005b8381101561121757604051806040016040528086868481811061112e57fe5b905060200201602061114391908101906128c8565b63ffffffff168152602001886001600160a01b031663782d6fe18989898781811061116a57fe5b905060200201602061117f91908101906128c8565b6040518363ffffffff1660e01b815260040161119c92919061327a565b60206040518083038186803b1580156111b457600080fd5b505afa1580156111c8573d6000803e3d6000fd5b505050506040513d601f19601f820116820180604052506111ec9190810190612904565b6001600160601b031681525082828151811061120457fe5b602090810291909101015260010161110f565b5095945050505050565b611229611ee1565b6000806000856001600160a01b0316635ec88c79866040518263ffffffff1660e01b815260040161125a9190613243565b60606040518083038186803b15801561127257600080fd5b505afa158015611286573d6000803e3d6000fd5b505050506040513d601f19601f820116820180604052506112aa9190810190612885565b925092509250826000146112d95760405162461bcd60e51b81526004016112d09061331a565b60405180910390fd5b604080516060810191829052632aff3bff60e21b909152806001600160a01b03881663abfceffc61130d8960648501613243565b60006040518083038186803b15801561132557600080fd5b505afa158015611339573d6000803e3d6000fd5b505050506040513d6000823e601f3d908101601f19168201604052611361919081019061251e565b81526020810193909352604090920152949350505050565b606080838390506040519080825280602002602001820160405280156113b957816020015b6113a6611f02565b81526020019060019003908161139e5790505b50905060005b8381101561152c57606080606080896001600160a01b031663328dd9828a8a888181106113e857fe5b905060200201356040518263ffffffff1660e01b815260040161140b9190613382565b60006040518083038186803b15801561142357600080fd5b505afa158015611437573d6000803e3d6000fd5b505050506040513d6000823e601f3d908101601f1916820160405261145f91908101906123cd565b9350935093509350604051806101a001604052806000815260200160006001600160a01b031681526020016000815260200185815260200184815260200183815260200182815260200160008152602001600081526020016000815260200160008152602001600015158152602001600015158152508686815181106114e157fe5b602002602001018190525061151c8686815181106114fb57fe5b60200260200101518b8b8b8981811061151057fe5b90506020020135611c6d565b5050600190920191506113bf9050565b50949350505050565b606060008251905060608160405190808252806020026020018201604052801561157957816020015b611566611f77565b81526020019060019003908161155e5790505b50905060005b828110156102d95761158f611f9e565b876001600160a01b031663e23a9a528784815181106115aa57fe5b6020026020010151896040518363ffffffff1660e01b81526004016115d0929190613390565b60606040518083038186803b1580156115e857600080fd5b505afa1580156115fc573d6000803e3d6000fd5b505050506040513d601f19601f820116820180604052506116209190810190612785565b9050604051806080016040528087848151811061163957fe5b6020026020010151815260200182600001511515815260200182602001511515815260200182604001516001600160601b031681525083838151811061167b57fe5b60209081029190910101525060010161157f565b611697611d93565b6040516370a0823160e01b81526000906001600160a01b038516906370a08231906116c6908690600401613251565b60206040518083038186803b1580156116de57600080fd5b505afa1580156116f2573d6000803e3d6000fd5b505050506040513d601f19601f8201168201806040525061171691908101906127a3565b90506000846001600160a01b03166317bfdfbc856040518263ffffffff1660e01b81526004016117469190613251565b602060405180830381600087803b15801561176057600080fd5b505af1158015611774573d6000803e3d6000fd5b505050506040513d601f19601f8201168201806040525061179891908101906127a3565b90506000856001600160a01b0316633af9e669866040518263ffffffff1660e01b81526004016117c89190613251565b602060405180830381600087803b1580156117e257600080fd5b505af11580156117f6573d6000803e3d6000fd5b505050506040513d601f19601f8201168201806040525061181a91908101906127a3565b905060008061185b886001600160a01b03166395d89b416040518163ffffffff1660e01b815260040160006040518083038186803b15801561049a57600080fd5b156118755750506001600160a01b038516803190316119f2565b60008890506000816001600160a01b0316636f307dc36040518163ffffffff1660e01b815260040160206040518083038186803b1580156118b557600080fd5b505afa1580156118c9573d6000803e3d6000fd5b505050506040513d601f19601f820116820180604052506118ed91908101906123a7565b6040516370a0823160e01b81529091506001600160a01b038216906370a082319061191c908c90600401613251565b60206040518083038186803b15801561193457600080fd5b505afa158015611948573d6000803e3d6000fd5b505050506040513d601f19601f8201168201806040525061196c91908101906127a3565b604051636eb1769f60e11b81529094506001600160a01b0382169063dd62ed3e9061199d908c908e9060040161325f565b60206040518083038186803b1580156119b557600080fd5b505afa1580156119c9573d6000803e3d6000fd5b505050506040513d601f19601f820116820180604052506119ed91908101906127a3565b925050505b6040805160c0810182526001600160a01b039990991689526020890195909552938701929092526060860152608085015260a08401525090919050565b611a37611e86565b6000826001600160a01b0316635fe3b5676040518163ffffffff1660e01b815260040160206040518083038186803b158015611a7257600080fd5b505afa158015611a86573d6000803e3d6000fd5b505050506040513d601f19601f82011682018060405250611aaa91908101906125da565b90506000816001600160a01b0316637dc0d1d06040518163ffffffff1660e01b815260040160206040518083038186803b158015611ae757600080fd5b505afa158015611afb573d6000803e3d6000fd5b505050506040513d601f19601f82011682018060405250611b1f91908101906125da565b90506040518060400160405280856001600160a01b03168152602001826001600160a01b031663fc57d4df876040518263ffffffff1660e01b8152600401611b6791906132fb565b60206040518083038186803b158015611b7f57600080fd5b505afa158015611b93573d6000803e3d6000fd5b505050506040513d601f19601f82011682018060405250611bb791908101906127a3565b9052949350505050565b600081604051602001611bd49190613237565b6040516020818303038152906040528051906020012083604051602001611bfb9190613237565b6040516020818303038152906040528051906020012014905092915050565b6000838301828582101561152c5760405162461bcd60e51b81526004016112d09190613309565b60008184841115611c655760405162461bcd60e51b81526004016112d09190613309565b505050900390565b600080600080600080600080896001600160a01b031663013cf08b8a6040518263ffffffff1660e01b8152600401611ca59190613382565b6101206040518083038186803b158015611cbe57600080fd5b505afa158015611cd2573d6000803e3d6000fd5b505050506040513d601f19601f82011682018060405250611cf691908101906127c1565b9850985098509850985098509850985050888b6000018181525050878b602001906001600160a01b031690816001600160a01b031681525050868b6040018181525050858b60e0018181525050848b610100018181525050838b610120018181525050828b610140018181525050818b610160019015159081151581525050808b6101800190151590811515815250505050505050505050505050565b6040518060c0016040528060006001600160a01b0316815260200160008152602001600081526020016000815260200160008152602001600081525090565b604051806101c0016040528060006001600160a01b0316815260200160008152602001600081526020016000815260200160008152602001600081526020016000815260200160008152602001600081526020016000151581526020016000815260200160006001600160a01b0316815260200160008152602001600081525090565b6040518060800160405280600081526020016000815260200160006001600160a01b03168152602001600081525090565b604080518082019091526000808252602082015290565b6040518060600160405280600081526020016000815260200160006001600160a01b031681525090565b604051806040016040528060008152602001600081525090565b60405180606001604052806060815260200160008152602001600081525090565b604051806101a001604052806000815260200160006001600160a01b031681526020016000815260200160608152602001606081526020016060815260200160608152602001600081526020016000815260200160008152602001600081526020016000151581526020016000151581525090565b60408051608081018252600080825260208201819052918101829052606081019190915290565b604080516060810182526000808252602082018190529181019190915290565b8035610e89816134b4565b8051610e89816134b4565b600082601f830112611fe557600080fd5b8151611ff8611ff3826133c4565b61339e565b9150818183526020840193506020810190508385602084028201111561201d57600080fd5b60005b8381101561204957816120338882611fc9565b8452506020928301929190910190600101612020565b5050505092915050565b600082601f83011261206457600080fd5b8151612072611ff3826133c4565b81815260209384019390925082018360005b83811015612049578151860161209a88826122b0565b8452506020928301929190910190600101612084565b60008083601f8401126120c257600080fd5b5081356001600160401b038111156120d957600080fd5b6020830191508360208202830111156120f157600080fd5b9250929050565b600082601f83011261210957600080fd5b8151612117611ff3826133c4565b9150818183526020840193506020810190508385602084028201111561213c57600080fd5b60005b838110156120495781612152888261230a565b845250602092830192919091019060010161213f565b600082601f83011261217957600080fd5b8151612187611ff3826133c4565b81815260209384019390925082018360005b8381101561204957815186016121af88826122b0565b8452506020928301929190910190600101612199565b600082601f8301126121d657600080fd5b81356121e4611ff3826133c4565b9150818183526020840193506020810190508385602084028201111561220957600080fd5b60005b83811015612049578161221f8882612370565b845250602092830192919091019060010161220c565b600082601f83011261224657600080fd5b8151612254611ff3826133c4565b9150818183526020840193506020810190508385602084028201111561227957600080fd5b60005b83811015612049578161228f888261237b565b845250602092830192919091019060010161227c565b8051610e89816134cb565b600082601f8301126122c157600080fd5b81516122cf611ff3826133e4565b915080825260208301602083018583830111156122eb57600080fd5b6122f683828461347e565b50505092915050565b8035610e89816134d4565b8051610e89816134d4565b60006060828403121561232757600080fd5b612331606061339e565b9050600061233f84846122a5565b8252506020612350848483016122a5565b60208301525060406123648482850161239c565b60408301525092915050565b8035610e89816134dd565b8051610e89816134dd565b8035610e89816134e6565b8051610e89816134ef565b8051610e89816134f8565b6000602082840312156123b957600080fd5b60006123c58484611fc9565b949350505050565b600080600080608085870312156123e357600080fd5b84516001600160401b038111156123f957600080fd5b61240587828801611fd4565b94505060208501516001600160401b0381111561242157600080fd5b61242d87828801612235565b93505060408501516001600160401b0381111561244957600080fd5b61245587828801612168565b92505060608501516001600160401b0381111561247157600080fd5b61247d87828801612053565b91505092959194509250565b6000806020838503121561249c57600080fd5b82356001600160401b038111156124b257600080fd5b6124be858286016120b0565b92509250509250929050565b6000806000604084860312156124df57600080fd5b83356001600160401b038111156124f557600080fd5b612501868287016120b0565b9350935050602061251486828701611fbe565b9150509250925092565b60006020828403121561253057600080fd5b81516001600160401b0381111561254657600080fd5b6123c5848285016120f8565b6000806040838503121561256557600080fd5b600061257185856122a5565b92505060206125828582860161237b565b9150509250929050565b60006020828403121561259e57600080fd5b60006123c584846122ff565b600080604083850312156125bd57600080fd5b60006125c985856122ff565b925050602061258285828601611fbe565b6000602082840312156125ec57600080fd5b60006123c5848461230a565b60008060006060848603121561260d57600080fd5b600061261986866122ff565b935050602061262a86828701611fbe565b92505060408401356001600160401b0381111561264657600080fd5b612514868287016121c5565b60008060006040848603121561266757600080fd5b600061267386866122ff565b93505060208401356001600160401b0381111561268f57600080fd5b61269b868287016120b0565b92509250509250925092565b600080600080606085870312156126bd57600080fd5b60006126c987876122ff565b94505060206126da87828801611fbe565b93505060408501356001600160401b038111156126f657600080fd5b612702878288016120b0565b95989497509550505050565b60008060006060848603121561272357600080fd5b600061272f86866122ff565b9350506020612740868287016122ff565b925050604061251486828701611fbe565b60006020828403121561276357600080fd5b81516001600160401b0381111561277957600080fd5b6123c5848285016122b0565b60006060828403121561279757600080fd5b60006123c58484612315565b6000602082840312156127b557600080fd5b60006123c5848461237b565b60008060008060008060008060006101208a8c0312156127e057600080fd5b60006127ec8c8c61237b565b99505060206127fd8c828d01611fc9565b985050604061280e8c828d0161237b565b975050606061281f8c828d0161237b565b96505060806128308c828d0161237b565b95505060a06128418c828d0161237b565b94505060c06128528c828d0161237b565b93505060e06128638c828d016122a5565b9250506101006128758c828d016122a5565b9150509295985092959850929598565b60008060006060848603121561289a57600080fd5b60006128a6868661237b565b93505060206128b78682870161237b565b92505060406125148682870161237b565b6000602082840312156128da57600080fd5b60006123c58484612386565b6000602082840312156128f857600080fd5b60006123c58484612391565b60006020828403121561291657600080fd5b60006123c5848461239c565b600061292e83836129d2565b505060200190565b60006102de8383612d8f565b600061292e8383612dc7565b600061295a8383612e72565b505060c00190565b600061296e8383612ee8565b50506101c00190565b60006129838383612ffd565b505060400190565b600061298383836130a2565b60006102de83836130b3565b60006129af83836131d2565b505060800190565b600061292e838361321c565b6129cc81613468565b82525050565b6129cc81613423565b60006129e682613411565b6129f08185613415565b93506129fb8361340b565b8060005b83811015612a29578151612a138882612922565b9750612a1e8361340b565b9250506001016129ff565b509495945050505050565b6000612a3f82613411565b612a498185613415565b935083602082028501612a5b8561340b565b8060005b85811015612a955784840389528151612a788582612936565b9450612a838361340b565b60209a909a0199925050600101612a5f565b5091979650505050505050565b6000612aad82613411565b612ab78185613415565b9350612ac28361340b565b8060005b83811015612a29578151612ada8882612942565b9750612ae58361340b565b925050600101612ac6565b6000612afb82613411565b612b058185613415565b935083602082028501612b178561340b565b8060005b85811015612a955784840389528151612b348582612936565b9450612b3f8361340b565b60209a909a0199925050600101612b1b565b6000612b5c82613411565b612b668185613415565b9350612b718361340b565b8060005b83811015612a29578151612b89888261294e565b9750612b948361340b565b925050600101612b75565b6000612baa82613411565b612bb48185613415565b9350612bbf8361340b565b8060005b83811015612a29578151612bd78882612962565b9750612be28361340b565b925050600101612bc3565b6000612bf882613411565b612c028185613415565b9350612c0d8361340b565b8060005b83811015612a29578151612c258882612977565b9750612c308361340b565b925050600101612c11565b6000612c4682613411565b612c508185613415565b9350612c5b8361340b565b8060005b83811015612a29578151612c73888261298b565b9750612c7e8361340b565b925050600101612c5f565b6000612c9482613411565b612c9e8185613415565b935083602082028501612cb08561340b565b8060005b85811015612a955784840389528151612ccd8582612997565b9450612cd88361340b565b60209a909a0199925050600101612cb4565b6000612cf582613411565b612cff8185613415565b9350612d0a8361340b565b8060005b83811015612a29578151612d2288826129a3565b9750612d2d8361340b565b925050600101612d0e565b6000612d4382613411565b612d4d8185613415565b9350612d588361340b565b8060005b83811015612a29578151612d7088826129b7565b9750612d7b8361340b565b925050600101612d5c565b6129cc8161342e565b6000612d9a82613411565b612da48185613415565b9350612db481856020860161347e565b612dbd816134aa565b9093019392505050565b6129cc81613433565b6000612ddb82613411565b612de5818561341e565b9350612df581856020860161347e565b9290920192915050565b6000612e0c600f83613415565b6e3634b8bab4b234ba3c9032b93937b960891b815260200192915050565b8051606080845260009190840190612e428282612aa2565b9150506020830151612e57602086018261321c565b506040830151612e6a604086018261321c565b509392505050565b805160c0830190612e8384826129d2565b506020820151612e96602085018261321c565b506040820151612ea9604085018261321c565b506060820151612ebc606085018261321c565b506080820151612ecf608085018261321c565b5060a0820151612ee260a085018261321c565b50505050565b80516101c0830190612efa84826129d2565b506020820151612f0d602085018261321c565b506040820151612f20604085018261321c565b506060820151612f33606085018261321c565b506080820151612f46608085018261321c565b5060a0820151612f5960a085018261321c565b5060c0820151612f6c60c085018261321c565b5060e0820151612f7f60e085018261321c565b50610100820151612f9461010085018261321c565b50610120820151612fa9610120850182612d86565b50610140820151612fbe61014085018261321c565b50610160820151612fd36101608501826129d2565b50610180820151612fe861018085018261321c565b506101a0820151612ee26101a085018261321c565b8051604083019061300e84826129d2565b506020820151612ee2602085018261321c565b80516080830190613032848261321c565b506020820151613045602085018261321c565b50604082015161305860408501826129d2565b506060820151612ee2606085018261321c565b8051606083019061307c848261321c565b50602082015161308f602085018261321c565b506040820151612ee260408501826129d2565b8051604083019061300e848261321c565b80516000906101a08401906130c8858261321c565b5060208301516130db60208601826129d2565b5060408301516130ee604086018261321c565b506060830151848203606086015261310682826129db565b915050608083015184820360808601526131208282612d38565b91505060a083015184820360a086015261313a8282612af0565b91505060c083015184820360c08601526131548282612a34565b91505060e083015161316960e086018261321c565b5061010083015161317e61010086018261321c565b5061012083015161319361012086018261321c565b506101408301516131a861014086018261321c565b506101608301516131bd610160860182612d86565b50610180830151612e6a610180860182612d86565b805160808301906131e3848261321c565b5060208201516131f66020850182612d86565b5060408201516132096040850182612d86565b506060820151612ee2606085018261322e565b6129cc8161344a565b6129cc81613473565b6129cc8161345c565b60006102de8284612dd0565b60208101610e8982846129d2565b60208101610e8982846129c3565b6040810161326d82856129c3565b6102de60208301846129d2565b6040810161328882856129d2565b6102de6020830184613225565b602080825281016102de8184612b51565b602080825281016102de8184612b9f565b602080825281016102de8184612bed565b602080825281016102de8184612c3b565b602080825281016102de8184612c89565b602080825281016102de8184612cea565b60208101610e898284612dc7565b602080825281016102de8184612d8f565b60208082528101610e8981612dff565b602080825281016102de8184612e2a565b60c08101610e898284612e72565b6101c08101610e898284612ee8565b60408101610e898284612ffd565b60808101610e898284613021565b60608101610e89828461306b565b60208101610e89828461321c565b6040810161326d828561321c565b6040518181016001600160401b03811182821017156133bc57600080fd5b604052919050565b60006001600160401b038211156133da57600080fd5b5060209081020190565b60006001600160401b038211156133fa57600080fd5b506020601f91909101601f19160190565b60200190565b5190565b90815260200190565b919050565b6000610e898261343e565b151590565b6000610e8982613423565b6001600160a01b031690565b90565b63ffffffff1690565b60ff1690565b6001600160601b031690565b6000610e8982613433565b6000610e898261344d565b60005b83811015613499578181015183820152602001613481565b83811115612ee25750506000910152565b601f01601f191690565b6134bd81613423565b81146134c857600080fd5b50565b6134bd8161342e565b6134bd81613433565b6134bd8161344a565b6134bd8161344d565b6134bd81613456565b6134bd8161345c56fea365627a7a72315820f1eec6fc0d7e8207df6c6159bc04dda4a3a35d8e92558659958635b5a3f93bca6c6578706572696d656e74616cf564736f6c63430005110040",
  "devdoc": {
    "author": "rLending",
    "methods": {},
    "title": "Helper contract to get information of the protocol ."
  },
  "userdoc": {
    "methods": {},
    "notice": "RlendingLens allows to make obtain global information with a single call."
  },
  "storageLayout": {
    "storage": [],
    "types": null
  }
}